{"contracts/VaultContract.sol":{"VaultContract":{"abi":[{"inputs":[{"internalType":"address","name":"_usdc","type":"address"}],"stateMutability":"nonpayable","type":"constructor"},{"anonymous":false,"inputs":[{"indexed":true,"internalType":"address","name":"user","type":"address"},{"indexed":false,"internalType":"uint256","name":"amount","type":"uint256"}],"name":"Deposit","type":"event"},{"anonymous":false,"inputs":[{"indexed":true,"internalType":"address","name":"previousOwner","type":"address"},{"indexed":true,"internalType":"address","name":"newOwner","type":"address"}],"name":"OwnershipTransferred","type":"event"},{"anonymous":false,"inputs":[{"indexed":true,"internalType":"address","name":"user","type":"address"},{"indexed":true,"internalType":"address","name":"protocol","type":"address"},{"indexed":false,"internalType":"uint256","name":"percentage","type":"uint256"}],"name":"ProtocolAllocation","type":"event"},{"anonymous":false,"inputs":[{"indexed":true,"internalType":"address","name":"user","type":"address"},{"indexed":false,"internalType":"uint256","name":"amount","type":"uint256"}],"name":"Withdraw","type":"event"},{"anonymous":false,"inputs":[{"indexed":true,"internalType":"address","name":"user","type":"address"},{"indexed":false,"internalType":"uint256","name":"amount","type":"uint256"}],"name":"YieldGenerated","type":"event"},{"inputs":[],"name":"USDC","outputs":[{"internalType":"contract IERC20","name":"","type":"address"}],"stateMutability":"view","type":"function"},{"inputs":[{"internalType":"address","name":"protocol","type":"address"}],"name":"addSupportedProtocol","outputs":[],"stateMutability":"nonpayable","type":"function"},{"inputs":[{"internalType":"address","name":"protocol","type":"address"},{"internalType":"uint256","name":"percentage","type":"uint256"}],"name":"allocateToProtocol","outputs":[],"stateMutability":"nonpayable","type":"function"},{"inputs":[{"internalType":"uint256","name":"amount","type":"uint256"}],"name":"deposit","outputs":[],"stateMutability":"nonpayable","type":"function"},{"inputs":[{"internalType":"address","name":"user","type":"address"},{"internalType":"uint256","name":"amount","type":"uint256"}],"name":"generateYield","outputs":[],"stateMutability":"nonpayable","type":"function"},{"inputs":[{"internalType":"address","name":"user","type":"address"}],"name":"getUserBalance","outputs":[{"internalType":"uint256","name":"","type":"uint256"}],"stateMutability":"view","type":"function"},{"inputs":[{"internalType":"address","name":"user","type":"address"}],"name":"getYield","outputs":[{"internalType":"uint256","name":"","type":"uint256"}],"stateMutability":"view","type":"function"},{"inputs":[],"name":"owner","outputs":[{"internalType":"address","name":"","type":"address"}],"stateMutability":"view","type":"function"},{"inputs":[{"internalType":"address","name":"","type":"address"},{"internalType":"address","name":"","type":"address"}],"name":"protocolAllocations","outputs":[{"internalType":"uint256","name":"","type":"uint256"}],"stateMutability":"view","type":"function"},{"inputs":[{"internalType":"address","name":"protocol","type":"address"}],"name":"removeSupportedProtocol","outputs":[],"stateMutability":"nonpayable","type":"function"},{"inputs":[],"name":"renounceOwnership","outputs":[],"stateMutability":"nonpayable","type":"function"},{"inputs":[{"internalType":"address","name":"","type":"address"}],"name":"supportedProtocols","outputs":[{"internalType":"bool","name":"","type":"bool"}],"stateMutability":"view","type":"function"},{"inputs":[{"internalType":"address","name":"newOwner","type":"address"}],"name":"transferOwnership","outputs":[],"stateMutability":"nonpayable","type":"function"},{"inputs":[{"internalType":"address","name":"","type":"address"}],"name":"userBalances","outputs":[{"internalType":"uint256","name":"","type":"uint256"}],"stateMutability":"view","type":"function"},{"inputs":[{"internalType":"address","name":"","type":"address"}],"name":"userYield","outputs":[{"internalType":"uint256","name":"","type":"uint256"}],"stateMutability":"view","type":"function"},{"inputs":[{"internalType":"uint256","name":"amount","type":"uint256"}],"name":"withdraw","outputs":[],"stateMutability":"nonpayable","type":"function"}],"evm":{"bytecode":{"linkReferences":{},"object":"60a060405234801561001057600080fd5b50604051610c33380380610c3383398101604081905261002f916100a0565b600160005561003d3361004e565b6001600160a01b03166080526100d0565b600180546001600160a01b038381166001600160a01b0319831681179093556040519116919082907f8be0079c531659141344cd1fd0a4f28419497f9722a3daafe3b4186f6b6457e090600090a35050565b6000602082840312156100b257600080fd5b81516001600160a01b03811681146100c957600080fd5b9392505050565b608051610b3a6100f960003960008181610230015281816103da01526106570152610b3a6000f3fe608060405234801561001057600080fd5b50600436106101005760003560e01c80638438cc2311610097578063b6b55f2511610066578063b6b55f251461027b578063e2cfa93d1461028e578063e7357f59146102a1578063f2fde38b146102d457600080fd5b80638438cc231461020557806386a794381461021857806389a302711461022b5780638da5cb5b1461026a57600080fd5b806361b3165d116100d357806361b3165d146101a157806364c33977146101b4578063715018a6146101dd5780637e562904146101e557600080fd5b806326224c64146101055780632e1a7d4d1461013857806346a4500f1461014d5780634773489214610178575b600080fd5b610125610113366004610a08565b60026020526000908152604090205481565b6040519081526020015b60405180910390f35b61014b610146366004610a2a565b6102e7565b005b61012561015b366004610a43565b600360209081526000928352604080842090915290825290205481565b610125610186366004610a08565b6001600160a01b031660009081526002602052604090205490565b61014b6101af366004610a08565b6104d0565b6101256101c2366004610a08565b6001600160a01b031660009081526005602052604090205490565b61014b6104fc565b6101256101f3366004610a08565b60056020526000908152604090205481565b61014b610213366004610a08565b610510565b61014b610226366004610a76565b610539565b6102527f000000000000000000000000000000000000000000000000000000000000000081565b6040516001600160a01b03909116815260200161012f565b6001546001600160a01b0316610252565b61014b610289366004610a2a565b6105dd565b61014b61029c366004610a76565b610760565b6102c46102af366004610a08565b60046020526000908152604090205460ff1681565b604051901515815260200161012f565b61014b6102e2366004610a08565b610871565b6102ef6108e7565b600081116103445760405162461bcd60e51b815260206004820152601d60248201527f416d6f756e74206d7573742062652067726561746572207468616e203000000060448201526064015b60405180910390fd5b3360009081526002602052604090205481111561039a5760405162461bcd60e51b8152602060048201526014602482015273496e73756666696369656e742062616c616e636560601b604482015260640161033b565b33600090815260026020526040812080548392906103b9908490610ab6565b909155505060405163a9059cbb60e01b8152336004820152602481018290527f00000000000000000000000000000000000000000000000000000000000000006001600160a01b03169063a9059cbb906044016020604051808303816000875af115801561042b573d6000803e3d6000fd5b505050506040513d601f19601f8201168201806040525081019061044f9190610acf565b61048d5760405162461bcd60e51b815260206004820152600f60248201526e151c985b9cd9995c8819985a5b1959608a1b604482015260640161033b565b60405181815233907f884edad9ce6fa2440d8a54cc123490eb96d2768479d49ff9c7366125a9424364906020015b60405180910390a26104cd6001600055565b50565b6104d8610940565b6001600160a01b03166000908152600460205260409020805460ff19166001179055565b610504610940565b61050e600061099a565b565b610518610940565b6001600160a01b03166000908152600460205260409020805460ff19169055565b610541610940565b6001600160a01b03821660009081526005602052604081208054839290610569908490610af1565b90915550506001600160a01b03821660009081526002602052604081208054839290610596908490610af1565b90915550506040518181526001600160a01b038316907f07616302615f148fb89acb6dadd27ccbeeaa18d4d6dbb193d2c046c94bb5a3039060200160405180910390a25050565b6105e56108e7565b600081116106355760405162461bcd60e51b815260206004820152601d60248201527f416d6f756e74206d7573742062652067726561746572207468616e2030000000604482015260640161033b565b6040516323b872dd60e01b8152336004820152306024820152604481018290527f00000000000000000000000000000000000000000000000000000000000000006001600160a01b0316906323b872dd906064016020604051808303816000875af11580156106a8573d6000803e3d6000fd5b505050506040513d601f19601f820116820180604052508101906106cc9190610acf565b61070a5760405162461bcd60e51b815260206004820152600f60248201526e151c985b9cd9995c8819985a5b1959608a1b604482015260640161033b565b3360009081526002602052604081208054839290610729908490610af1565b909155505060405181815233907fe1fffcc4923d04b559f4d29a8bfc6cda04eb5b0d3c460751c2402c5c5cc9109c906020016104bb565b6001600160a01b03821660009081526004602052604090205460ff166107c15760405162461bcd60e51b8152602060048201526016602482015275141c9bdd1bd8dbdb081b9bdd081cdd5c1c1bdc9d195960521b604482015260640161033b565b60648111156108125760405162461bcd60e51b815260206004820152601c60248201527f50657263656e746167652063616e6e6f74206578636565642031303000000000604482015260640161033b565b3360008181526003602090815260408083206001600160a01b03871680855290835292819020859055518481529192917fbd7cdd08fc3d9777df8da3f90dd79a3908d81ec54437fb75bfad9ead89966be9910160405180910390a35050565b610879610940565b6001600160a01b0381166108de5760405162461bcd60e51b815260206004820152602660248201527f4f776e61626c653a206e6577206f776e657220697320746865207a65726f206160448201526564647265737360d01b606482015260840161033b565b6104cd8161099a565b6002600054036109395760405162461bcd60e51b815260206004820152601f60248201527f5265656e7472616e637947756172643a207265656e7472616e742063616c6c00604482015260640161033b565b6002600055565b6001546001600160a01b0316331461050e5760405162461bcd60e51b815260206004820181905260248201527f4f776e61626c653a2063616c6c6572206973206e6f7420746865206f776e6572604482015260640161033b565b600180546001600160a01b038381166001600160a01b0319831681179093556040519116919082907f8be0079c531659141344cd1fd0a4f28419497f9722a3daafe3b4186f6b6457e090600090a35050565b80356001600160a01b0381168114610a0357600080fd5b919050565b600060208284031215610a1a57600080fd5b610a23826109ec565b9392505050565b600060208284031215610a3c57600080fd5b5035919050565b60008060408385031215610a5657600080fd5b610a5f836109ec565b9150610a6d602084016109ec565b90509250929050565b60008060408385031215610a8957600080fd5b610a92836109ec565b946020939093013593505050565b634e487b7160e01b600052601160045260246000fd5b81810381811115610ac957610ac9610aa0565b92915050565b600060208284031215610ae157600080fd5b81518015158114610a2357600080fd5b80820180821115610ac957610ac9610aa056fea2646970667358221220024c8cd754450591e662dd79389f05ef922e6f8c4a67badb9d0b47912f65015264736f6c63430008130033","opcodes":"PUSH1 0xA0 PUSH1 0x40 MSTORE CALLVALUE DUP1 ISZERO PUSH2 0x10 JUMPI PUSH1 0x0 DUP1 REVERT JUMPDEST POP PUSH1 0x40 MLOAD PUSH2 0xC33 CODESIZE SUB DUP1 PUSH2 0xC33 DUP4 CODECOPY DUP2 ADD PUSH1 0x40 DUP2 SWAP1 MSTORE PUSH2 0x2F SWAP2 PUSH2 0xA0 JUMP JUMPDEST PUSH1 0x1 PUSH1 0x0 SSTORE PUSH2 0x3D CALLER PUSH2 0x4E JUMP JUMPDEST PUSH1 0x1 PUSH1 0x1 PUSH1 0xA0 SHL SUB AND PUSH1 0x80 MSTORE PUSH2 0xD0 JUMP JUMPDEST PUSH1 0x1 DUP1 SLOAD PUSH1 0x1 PUSH1 0x1 PUSH1 0xA0 SHL SUB DUP4 DUP2 AND PUSH1 0x1 PUSH1 0x1 PUSH1 0xA0 SHL SUB NOT DUP4 AND DUP2 OR SWAP1 SWAP4 SSTORE PUSH1 0x40 MLOAD SWAP2 AND SWAP2 SWAP1 DUP3 SWAP1 PUSH32 0x8BE0079C531659141344CD1FD0A4F28419497F9722A3DAAFE3B4186F6B6457E0 SWAP1 PUSH1 0x0 SWAP1 LOG3 POP POP JUMP JUMPDEST PUSH1 0x0 PUSH1 0x20 DUP3 DUP5 SUB SLT ISZERO PUSH2 0xB2 JUMPI PUSH1 0x0 DUP1 REVERT JUMPDEST DUP2 MLOAD PUSH1 0x1 PUSH1 0x1 PUSH1 0xA0 SHL SUB DUP2 AND DUP2 EQ PUSH2 0xC9 JUMPI PUSH1 0x0 DUP1 REVERT JUMPDEST SWAP4 SWAP3 POP POP POP JUMP JUMPDEST PUSH1 0x80 MLOAD PUSH2 0xB3A PUSH2 0xF9 PUSH1 0x0 CODECOPY PUSH1 0x0 DUP2 DUP2 PUSH2 0x230 ADD MSTORE DUP2 DUP2 PUSH2 0x3DA ADD MSTORE PUSH2 0x657 ADD MSTORE PUSH2 0xB3A PUSH1 0x0 RETURN INVALID PUSH1 0x80 PUSH1 0x40 MSTORE CALLVALUE DUP1 ISZERO PUSH2 0x10 JUMPI PUSH1 0x0 DUP1 REVERT JUMPDEST POP PUSH1 0x4 CALLDATASIZE LT PUSH2 0x100 JUMPI PUSH1 0x0 CALLDATALOAD PUSH1 0xE0 SHR DUP1 PUSH4 0x8438CC23 GT PUSH2 0x97 JUMPI DUP1 PUSH4 0xB6B55F25 GT PUSH2 0x66 JUMPI DUP1 PUSH4 0xB6B55F25 EQ PUSH2 0x27B JUMPI DUP1 PUSH4 0xE2CFA93D EQ PUSH2 0x28E JUMPI DUP1 PUSH4 0xE7357F59 EQ PUSH2 0x2A1 JUMPI DUP1 PUSH4 0xF2FDE38B EQ PUSH2 0x2D4 JUMPI PUSH1 0x0 DUP1 REVERT JUMPDEST DUP1 PUSH4 0x8438CC23 EQ PUSH2 0x205 JUMPI DUP1 PUSH4 0x86A79438 EQ PUSH2 0x218 JUMPI DUP1 PUSH4 0x89A30271 EQ PUSH2 0x22B JUMPI DUP1 PUSH4 0x8DA5CB5B EQ PUSH2 0x26A JUMPI PUSH1 0x0 DUP1 REVERT JUMPDEST DUP1 PUSH4 0x61B3165D GT PUSH2 0xD3 JUMPI DUP1 PUSH4 0x61B3165D EQ PUSH2 0x1A1 JUMPI DUP1 PUSH4 0x64C33977 EQ PUSH2 0x1B4 JUMPI DUP1 PUSH4 0x715018A6 EQ PUSH2 0x1DD JUMPI DUP1 PUSH4 0x7E562904 EQ PUSH2 0x1E5 JUMPI PUSH1 0x0 DUP1 REVERT JUMPDEST DUP1 PUSH4 0x26224C64 EQ PUSH2 0x105 JUMPI DUP1 PUSH4 0x2E1A7D4D EQ PUSH2 0x138 JUMPI DUP1 PUSH4 0x46A4500F EQ PUSH2 0x14D JUMPI DUP1 PUSH4 0x47734892 EQ PUSH2 0x178 JUMPI JUMPDEST PUSH1 0x0 DUP1 REVERT JUMPDEST PUSH2 0x125 PUSH2 0x113 CALLDATASIZE PUSH1 0x4 PUSH2 0xA08 JUMP JUMPDEST PUSH1 0x2 PUSH1 0x20 MSTORE PUSH1 0x0 SWAP1 DUP2 MSTORE PUSH1 0x40 SWAP1 KECCAK256 SLOAD DUP2 JUMP JUMPDEST PUSH1 0x40 MLOAD SWAP1 DUP2 MSTORE PUSH1 0x20 ADD JUMPDEST PUSH1 0x40 MLOAD DUP1 SWAP2 SUB SWAP1 RETURN JUMPDEST PUSH2 0x14B PUSH2 0x146 CALLDATASIZE PUSH1 0x4 PUSH2 0xA2A JUMP JUMPDEST PUSH2 0x2E7 JUMP JUMPDEST STOP JUMPDEST PUSH2 0x125 PUSH2 0x15B CALLDATASIZE PUSH1 0x4 PUSH2 0xA43 JUMP JUMPDEST PUSH1 0x3 PUSH1 0x20 SWAP1 DUP2 MSTORE PUSH1 0x0 SWAP3 DUP4 MSTORE PUSH1 0x40 DUP1 DUP5 KECCAK256 SWAP1 SWAP2 MSTORE SWAP1 DUP3 MSTORE SWAP1 KECCAK256 SLOAD DUP2 JUMP JUMPDEST PUSH2 0x125 PUSH2 0x186 CALLDATASIZE PUSH1 0x4 PUSH2 0xA08 JUMP JUMPDEST PUSH1 0x1 PUSH1 0x1 PUSH1 0xA0 SHL SUB AND PUSH1 0x0 SWAP1 DUP2 MSTORE PUSH1 0x2 PUSH1 0x20 MSTORE PUSH1 0x40 SWAP1 KECCAK256 SLOAD SWAP1 JUMP JUMPDEST PUSH2 0x14B PUSH2 0x1AF CALLDATASIZE PUSH1 0x4 PUSH2 0xA08 JUMP JUMPDEST PUSH2 0x4D0 JUMP JUMPDEST PUSH2 0x125 PUSH2 0x1C2 CALLDATASIZE PUSH1 0x4 PUSH2 0xA08 JUMP JUMPDEST PUSH1 0x1 PUSH1 0x1 PUSH1 0xA0 SHL SUB AND PUSH1 0x0 SWAP1 DUP2 MSTORE PUSH1 0x5 PUSH1 0x20 MSTORE PUSH1 0x40 SWAP1 KECCAK256 SLOAD SWAP1 JUMP JUMPDEST PUSH2 0x14B PUSH2 0x4FC JUMP JUMPDEST PUSH2 0x125 PUSH2 0x1F3 CALLDATASIZE PUSH1 0x4 PUSH2 0xA08 JUMP JUMPDEST PUSH1 0x5 PUSH1 0x20 MSTORE PUSH1 0x0 SWAP1 DUP2 MSTORE PUSH1 0x40 SWAP1 KECCAK256 SLOAD DUP2 JUMP JUMPDEST PUSH2 0x14B PUSH2 0x213 CALLDATASIZE PUSH1 0x4 PUSH2 0xA08 JUMP JUMPDEST PUSH2 0x510 JUMP JUMPDEST PUSH2 0x14B PUSH2 0x226 CALLDATASIZE PUSH1 0x4 PUSH2 0xA76 JUMP JUMPDEST PUSH2 0x539 JUMP JUMPDEST PUSH2 0x252 PUSH32 0x0 DUP2 JUMP JUMPDEST PUSH1 0x40 MLOAD PUSH1 0x1 PUSH1 0x1 PUSH1 0xA0 SHL SUB SWAP1 SWAP2 AND DUP2 MSTORE PUSH1 0x20 ADD PUSH2 0x12F JUMP JUMPDEST PUSH1 0x1 SLOAD PUSH1 0x1 PUSH1 0x1 PUSH1 0xA0 SHL SUB AND PUSH2 0x252 JUMP JUMPDEST PUSH2 0x14B PUSH2 0x289 CALLDATASIZE PUSH1 0x4 PUSH2 0xA2A JUMP JUMPDEST PUSH2 0x5DD JUMP JUMPDEST PUSH2 0x14B PUSH2 0x29C CALLDATASIZE PUSH1 0x4 PUSH2 0xA76 JUMP JUMPDEST PUSH2 0x760 JUMP JUMPDEST PUSH2 0x2C4 PUSH2 0x2AF CALLDATASIZE PUSH1 0x4 PUSH2 0xA08 JUMP JUMPDEST PUSH1 0x4 PUSH1 0x20 MSTORE PUSH1 0x0 SWAP1 DUP2 MSTORE PUSH1 0x40 SWAP1 KECCAK256 SLOAD PUSH1 0xFF AND DUP2 JUMP JUMPDEST PUSH1 0x40 MLOAD SWAP1 ISZERO ISZERO DUP2 MSTORE PUSH1 0x20 ADD PUSH2 0x12F JUMP JUMPDEST PUSH2 0x14B PUSH2 0x2E2 CALLDATASIZE PUSH1 0x4 PUSH2 0xA08 JUMP JUMPDEST PUSH2 0x871 JUMP JUMPDEST PUSH2 0x2EF PUSH2 0x8E7 JUMP JUMPDEST PUSH1 0x0 DUP2 GT PUSH2 0x344 JUMPI PUSH1 0x40 MLOAD PUSH3 0x461BCD PUSH1 0xE5 SHL DUP2 MSTORE PUSH1 0x20 PUSH1 0x4 DUP3 ADD MSTORE PUSH1 0x1D PUSH1 0x24 DUP3 ADD MSTORE PUSH32 0x416D6F756E74206D7573742062652067726561746572207468616E2030000000 PUSH1 0x44 DUP3 ADD MSTORE PUSH1 0x64 ADD JUMPDEST PUSH1 0x40 MLOAD DUP1 SWAP2 SUB SWAP1 REVERT JUMPDEST CALLER PUSH1 0x0 SWAP1 DUP2 MSTORE PUSH1 0x2 PUSH1 0x20 MSTORE PUSH1 0x40 SWAP1 KECCAK256 SLOAD DUP2 GT ISZERO PUSH2 0x39A JUMPI PUSH1 0x40 MLOAD PUSH3 0x461BCD PUSH1 0xE5 SHL DUP2 MSTORE PUSH1 0x20 PUSH1 0x4 DUP3 ADD MSTORE PUSH1 0x14 PUSH1 0x24 DUP3 ADD MSTORE PUSH20 0x496E73756666696369656E742062616C616E6365 PUSH1 0x60 SHL PUSH1 0x44 DUP3 ADD MSTORE PUSH1 0x64 ADD PUSH2 0x33B JUMP JUMPDEST CALLER PUSH1 0x0 SWAP1 DUP2 MSTORE PUSH1 0x2 PUSH1 0x20 MSTORE PUSH1 0x40 DUP2 KECCAK256 DUP1 SLOAD DUP4 SWAP3 SWAP1 PUSH2 0x3B9 SWAP1 DUP5 SWAP1 PUSH2 0xAB6 JUMP JUMPDEST SWAP1 SWAP2 SSTORE POP POP PUSH1 0x40 MLOAD PUSH4 0xA9059CBB PUSH1 0xE0 SHL DUP2 MSTORE CALLER PUSH1 0x4 DUP3 ADD MSTORE PUSH1 0x24 DUP2 ADD DUP3 SWAP1 MSTORE PUSH32 0x0 PUSH1 0x1 PUSH1 0x1 PUSH1 0xA0 SHL SUB AND SWAP1 PUSH4 0xA9059CBB SWAP1 PUSH1 0x44 ADD PUSH1 0x20 PUSH1 0x40 MLOAD DUP1 DUP4 SUB DUP2 PUSH1 0x0 DUP8 GAS CALL ISZERO DUP1 ISZERO PUSH2 0x42B JUMPI RETURNDATASIZE PUSH1 0x0 DUP1 RETURNDATACOPY RETURNDATASIZE PUSH1 0x0 REVERT JUMPDEST POP POP POP POP PUSH1 0x40 MLOAD RETURNDATASIZE PUSH1 0x1F NOT PUSH1 0x1F DUP3 ADD AND DUP3 ADD DUP1 PUSH1 0x40 MSTORE POP DUP2 ADD SWAP1 PUSH2 0x44F SWAP2 SWAP1 PUSH2 0xACF JUMP JUMPDEST PUSH2 0x48D JUMPI PUSH1 0x40 MLOAD PUSH3 0x461BCD PUSH1 0xE5 SHL DUP2 MSTORE PUSH1 0x20 PUSH1 0x4 DUP3 ADD MSTORE PUSH1 0xF PUSH1 0x24 DUP3 ADD MSTORE PUSH15 0x151C985B9CD9995C8819985A5B1959 PUSH1 0x8A SHL PUSH1 0x44 DUP3 ADD MSTORE PUSH1 0x64 ADD PUSH2 0x33B JUMP JUMPDEST PUSH1 0x40 MLOAD DUP2 DUP2 MSTORE CALLER SWAP1 PUSH32 0x884EDAD9CE6FA2440D8A54CC123490EB96D2768479D49FF9C7366125A9424364 SWAP1 PUSH1 0x20 ADD JUMPDEST PUSH1 0x40 MLOAD DUP1 SWAP2 SUB SWAP1 LOG2 PUSH2 0x4CD PUSH1 0x1 PUSH1 0x0 SSTORE JUMP JUMPDEST POP JUMP JUMPDEST PUSH2 0x4D8 PUSH2 0x940 JUMP JUMPDEST PUSH1 0x1 PUSH1 0x1 PUSH1 0xA0 SHL SUB AND PUSH1 0x0 SWAP1 DUP2 MSTORE PUSH1 0x4 PUSH1 0x20 MSTORE PUSH1 0x40 SWAP1 KECCAK256 DUP1 SLOAD PUSH1 0xFF NOT AND PUSH1 0x1 OR SWAP1 SSTORE JUMP JUMPDEST PUSH2 0x504 PUSH2 0x940 JUMP JUMPDEST PUSH2 0x50E PUSH1 0x0 PUSH2 0x99A JUMP JUMPDEST JUMP JUMPDEST PUSH2 0x518 PUSH2 0x940 JUMP JUMPDEST PUSH1 0x1 PUSH1 0x1 PUSH1 0xA0 SHL SUB AND PUSH1 0x0 SWAP1 DUP2 MSTORE PUSH1 0x4 PUSH1 0x20 MSTORE PUSH1 0x40 SWAP1 KECCAK256 DUP1 SLOAD PUSH1 0xFF NOT AND SWAP1 SSTORE JUMP JUMPDEST PUSH2 0x541 PUSH2 0x940 JUMP JUMPDEST PUSH1 0x1 PUSH1 0x1 PUSH1 0xA0 SHL SUB DUP3 AND PUSH1 0x0 SWAP1 DUP2 MSTORE PUSH1 0x5 PUSH1 0x20 MSTORE PUSH1 0x40 DUP2 KECCAK256 DUP1 SLOAD DUP4 SWAP3 SWAP1 PUSH2 0x569 SWAP1 DUP5 SWAP1 PUSH2 0xAF1 JUMP JUMPDEST SWAP1 SWAP2 SSTORE POP POP PUSH1 0x1 PUSH1 0x1 PUSH1 0xA0 SHL SUB DUP3 AND PUSH1 0x0 SWAP1 DUP2 MSTORE PUSH1 0x2 PUSH1 0x20 MSTORE PUSH1 0x40 DUP2 KECCAK256 DUP1 SLOAD DUP4 SWAP3 SWAP1 PUSH2 0x596 SWAP1 DUP5 SWAP1 PUSH2 0xAF1 JUMP JUMPDEST SWAP1 SWAP2 SSTORE POP POP PUSH1 0x40 MLOAD DUP2 DUP2 MSTORE PUSH1 0x1 PUSH1 0x1 PUSH1 0xA0 SHL SUB DUP4 AND SWAP1 PUSH32 0x7616302615F148FB89ACB6DADD27CCBEEAA18D4D6DBB193D2C046C94BB5A303 SWAP1 PUSH1 0x20 ADD PUSH1 0x40 MLOAD DUP1 SWAP2 SUB SWAP1 LOG2 POP POP JUMP JUMPDEST PUSH2 0x5E5 PUSH2 0x8E7 JUMP JUMPDEST PUSH1 0x0 DUP2 GT PUSH2 0x635 JUMPI PUSH1 0x40 MLOAD PUSH3 0x461BCD PUSH1 0xE5 SHL DUP2 MSTORE PUSH1 0x20 PUSH1 0x4 DUP3 ADD MSTORE PUSH1 0x1D PUSH1 0x24 DUP3 ADD MSTORE PUSH32 0x416D6F756E74206D7573742062652067726561746572207468616E2030000000 PUSH1 0x44 DUP3 ADD MSTORE PUSH1 0x64 ADD PUSH2 0x33B JUMP JUMPDEST PUSH1 0x40 MLOAD PUSH4 0x23B872DD PUSH1 0xE0 SHL DUP2 MSTORE CALLER PUSH1 0x4 DUP3 ADD MSTORE ADDRESS PUSH1 0x24 DUP3 ADD MSTORE PUSH1 0x44 DUP2 ADD DUP3 SWAP1 MSTORE PUSH32 0x0 PUSH1 0x1 PUSH1 0x1 PUSH1 0xA0 SHL SUB AND SWAP1 PUSH4 0x23B872DD SWAP1 PUSH1 0x64 ADD PUSH1 0x20 PUSH1 0x40 MLOAD DUP1 DUP4 SUB DUP2 PUSH1 0x0 DUP8 GAS CALL ISZERO DUP1 ISZERO PUSH2 0x6A8 JUMPI RETURNDATASIZE PUSH1 0x0 DUP1 RETURNDATACOPY RETURNDATASIZE PUSH1 0x0 REVERT JUMPDEST POP POP POP POP PUSH1 0x40 MLOAD RETURNDATASIZE PUSH1 0x1F NOT PUSH1 0x1F DUP3 ADD AND DUP3 ADD DUP1 PUSH1 0x40 MSTORE POP DUP2 ADD SWAP1 PUSH2 0x6CC SWAP2 SWAP1 PUSH2 0xACF JUMP JUMPDEST PUSH2 0x70A JUMPI PUSH1 0x40 MLOAD PUSH3 0x461BCD PUSH1 0xE5 SHL DUP2 MSTORE PUSH1 0x20 PUSH1 0x4 DUP3 ADD MSTORE PUSH1 0xF PUSH1 0x24 DUP3 ADD MSTORE PUSH15 0x151C985B9CD9995C8819985A5B1959 PUSH1 0x8A SHL PUSH1 0x44 DUP3 ADD MSTORE PUSH1 0x64 ADD PUSH2 0x33B JUMP JUMPDEST CALLER PUSH1 0x0 SWAP1 DUP2 MSTORE PUSH1 0x2 PUSH1 0x20 MSTORE PUSH1 0x40 DUP2 KECCAK256 DUP1 SLOAD DUP4 SWAP3 SWAP1 PUSH2 0x729 SWAP1 DUP5 SWAP1 PUSH2 0xAF1 JUMP JUMPDEST SWAP1 SWAP2 SSTORE POP POP PUSH1 0x40 MLOAD DUP2 DUP2 MSTORE CALLER SWAP1 PUSH32 0xE1FFFCC4923D04B559F4D29A8BFC6CDA04EB5B0D3C460751C2402C5C5CC9109C SWAP1 PUSH1 0x20 ADD PUSH2 0x4BB JUMP JUMPDEST PUSH1 0x1 PUSH1 0x1 PUSH1 0xA0 SHL SUB DUP3 AND PUSH1 0x0 SWAP1 DUP2 MSTORE PUSH1 0x4 PUSH1 0x20 MSTORE PUSH1 0x40 SWAP1 KECCAK256 SLOAD PUSH1 0xFF AND PUSH2 0x7C1 JUMPI PUSH1 0x40 MLOAD PUSH3 0x461BCD PUSH1 0xE5 SHL DUP2 MSTORE PUSH1 0x20 PUSH1 0x4 DUP3 ADD MSTORE PUSH1 0x16 PUSH1 0x24 DUP3 ADD MSTORE PUSH22 0x141C9BDD1BD8DBDB081B9BDD081CDD5C1C1BDC9D1959 PUSH1 0x52 SHL PUSH1 0x44 DUP3 ADD MSTORE PUSH1 0x64 ADD PUSH2 0x33B JUMP JUMPDEST PUSH1 0x64 DUP2 GT ISZERO PUSH2 0x812 JUMPI PUSH1 0x40 MLOAD PUSH3 0x461BCD PUSH1 0xE5 SHL DUP2 MSTORE PUSH1 0x20 PUSH1 0x4 DUP3 ADD MSTORE PUSH1 0x1C PUSH1 0x24 DUP3 ADD MSTORE PUSH32 0x50657263656E746167652063616E6E6F74206578636565642031303000000000 PUSH1 0x44 DUP3 ADD MSTORE PUSH1 0x64 ADD PUSH2 0x33B JUMP JUMPDEST CALLER PUSH1 0x0 DUP2 DUP2 MSTORE PUSH1 0x3 PUSH1 0x20 SWAP1 DUP2 MSTORE PUSH1 0x40 DUP1 DUP4 KECCAK256 PUSH1 0x1 PUSH1 0x1 PUSH1 0xA0 SHL SUB DUP8 AND DUP1 DUP6 MSTORE SWAP1 DUP4 MSTORE SWAP3 DUP2 SWAP1 KECCAK256 DUP6 SWAP1 SSTORE MLOAD DUP5 DUP2 MSTORE SWAP2 SWAP3 SWAP2 PUSH32 0xBD7CDD08FC3D9777DF8DA3F90DD79A3908D81EC54437FB75BFAD9EAD89966BE9 SWAP2 ADD PUSH1 0x40 MLOAD DUP1 SWAP2 SUB SWAP1 LOG3 POP POP JUMP JUMPDEST PUSH2 0x879 PUSH2 0x940 JUMP JUMPDEST PUSH1 0x1 PUSH1 0x1 PUSH1 0xA0 SHL SUB DUP2 AND PUSH2 0x8DE JUMPI PUSH1 0x40 MLOAD PUSH3 0x461BCD PUSH1 0xE5 SHL DUP2 MSTORE PUSH1 0x20 PUSH1 0x4 DUP3 ADD MSTORE PUSH1 0x26 PUSH1 0x24 DUP3 ADD MSTORE PUSH32 0x4F776E61626C653A206E6577206F776E657220697320746865207A65726F2061 PUSH1 0x44 DUP3 ADD MSTORE PUSH6 0x646472657373 PUSH1 0xD0 SHL PUSH1 0x64 DUP3 ADD MSTORE PUSH1 0x84 ADD PUSH2 0x33B JUMP JUMPDEST PUSH2 0x4CD DUP2 PUSH2 0x99A JUMP JUMPDEST PUSH1 0x2 PUSH1 0x0 SLOAD SUB PUSH2 0x939 JUMPI PUSH1 0x40 MLOAD PUSH3 0x461BCD PUSH1 0xE5 SHL DUP2 MSTORE PUSH1 0x20 PUSH1 0x4 DUP3 ADD MSTORE PUSH1 0x1F PUSH1 0x24 DUP3 ADD MSTORE PUSH32 0x5265656E7472616E637947756172643A207265656E7472616E742063616C6C00 PUSH1 0x44 DUP3 ADD MSTORE PUSH1 0x64 ADD PUSH2 0x33B JUMP JUMPDEST PUSH1 0x2 PUSH1 0x0 SSTORE JUMP JUMPDEST PUSH1 0x1 SLOAD PUSH1 0x1 PUSH1 0x1 PUSH1 0xA0 SHL SUB AND CALLER EQ PUSH2 0x50E JUMPI PUSH1 0x40 MLOAD PUSH3 0x461BCD PUSH1 0xE5 SHL DUP2 MSTORE PUSH1 0x20 PUSH1 0x4 DUP3 ADD DUP2 SWAP1 MSTORE PUSH1 0x24 DUP3 ADD MSTORE PUSH32 0x4F776E61626C653A2063616C6C6572206973206E6F7420746865206F776E6572 PUSH1 0x44 DUP3 ADD MSTORE PUSH1 0x64 ADD PUSH2 0x33B JUMP JUMPDEST PUSH1 0x1 DUP1 SLOAD PUSH1 0x1 PUSH1 0x1 PUSH1 0xA0 SHL SUB DUP4 DUP2 AND PUSH1 0x1 PUSH1 0x1 PUSH1 0xA0 SHL SUB NOT DUP4 AND DUP2 OR SWAP1 SWAP4 SSTORE PUSH1 0x40 MLOAD SWAP2 AND SWAP2 SWAP1 DUP3 SWAP1 PUSH32 0x8BE0079C531659141344CD1FD0A4F28419497F9722A3DAAFE3B4186F6B6457E0 SWAP1 PUSH1 0x0 SWAP1 LOG3 POP POP JUMP JUMPDEST DUP1 CALLDATALOAD PUSH1 0x1 PUSH1 0x1 PUSH1 0xA0 SHL SUB DUP2 AND DUP2 EQ PUSH2 0xA03 JUMPI PUSH1 0x0 DUP1 REVERT JUMPDEST SWAP2 SWAP1 POP JUMP JUMPDEST PUSH1 0x0 PUSH1 0x20 DUP3 DUP5 SUB SLT ISZERO PUSH2 0xA1A JUMPI PUSH1 0x0 DUP1 REVERT JUMPDEST PUSH2 0xA23 DUP3 PUSH2 0x9EC JUMP JUMPDEST SWAP4 SWAP3 POP POP POP JUMP JUMPDEST PUSH1 0x0 PUSH1 0x20 DUP3 DUP5 SUB SLT ISZERO PUSH2 0xA3C JUMPI PUSH1 0x0 DUP1 REVERT JUMPDEST POP CALLDATALOAD SWAP2 SWAP1 POP JUMP JUMPDEST PUSH1 0x0 DUP1 PUSH1 0x40 DUP4 DUP6 SUB SLT ISZERO PUSH2 0xA56 JUMPI PUSH1 0x0 DUP1 REVERT JUMPDEST PUSH2 0xA5F DUP4 PUSH2 0x9EC JUMP JUMPDEST SWAP2 POP PUSH2 0xA6D PUSH1 0x20 DUP5 ADD PUSH2 0x9EC JUMP JUMPDEST SWAP1 POP SWAP3 POP SWAP3 SWAP1 POP JUMP JUMPDEST PUSH1 0x0 DUP1 PUSH1 0x40 DUP4 DUP6 SUB SLT ISZERO PUSH2 0xA89 JUMPI PUSH1 0x0 DUP1 REVERT JUMPDEST PUSH2 0xA92 DUP4 PUSH2 0x9EC JUMP JUMPDEST SWAP5 PUSH1 0x20 SWAP4 SWAP1 SWAP4 ADD CALLDATALOAD SWAP4 POP POP POP JUMP JUMPDEST PUSH4 0x4E487B71 PUSH1 0xE0 SHL PUSH1 0x0 MSTORE PUSH1 0x11 PUSH1 0x4 MSTORE PUSH1 0x24 PUSH1 0x0 REVERT JUMPDEST DUP2 DUP2 SUB DUP2 DUP2 GT ISZERO PUSH2 0xAC9 JUMPI PUSH2 0xAC9 PUSH2 0xAA0 JUMP JUMPDEST SWAP3 SWAP2 POP POP JUMP JUMPDEST PUSH1 0x0 PUSH1 0x20 DUP3 DUP5 SUB SLT ISZERO PUSH2 0xAE1 JUMPI PUSH1 0x0 DUP1 REVERT JUMPDEST DUP2 MLOAD DUP1 ISZERO ISZERO DUP2 EQ PUSH2 0xA23 JUMPI PUSH1 0x0 DUP1 REVERT JUMPDEST DUP1 DUP3 ADD DUP1 DUP3 GT ISZERO PUSH2 0xAC9 JUMPI PUSH2 0xAC9 PUSH2 0xAA0 JUMP INVALID LOG2 PUSH5 0x6970667358 0x22 SLT KECCAK256 MUL 0x4C DUP13 0xD7 SLOAD GASLIMIT SDIV SWAP2 0xE6 PUSH3 0xDD7938 SWAP16 SDIV 0xEF SWAP3 0x2E PUSH16 0x8C4A67BADB9D0B47912F65015264736F PUSH13 0x63430008130033000000000000 "},"methodIdentifiers":{"USDC()":"89a30271","addSupportedProtocol(address)":"61b3165d","allocateToProtocol(address,uint256)":"e2cfa93d","deposit(uint256)":"b6b55f25","generateYield(address,uint256)":"86a79438","getUserBalance(address)":"47734892","getYield(address)":"64c33977","owner()":"8da5cb5b","protocolAllocations(address,address)":"46a4500f","removeSupportedProtocol(address)":"8438cc23","renounceOwnership()":"715018a6","supportedProtocols(address)":"e7357f59","transferOwnership(address)":"f2fde38b","userBalances(address)":"26224c64","userYield(address)":"7e562904","withdraw(uint256)":"2e1a7d4d"}}}}}