{
  "_format": "hh-sol-artifact-1",
  "contractName": "BadgeContract",
  "sourceName": "contracts/BadgeContract.sol",
  "abi": [
    {
      "inputs": [],
      "stateMutability": "nonpayable",
      "type": "constructor"
    },
    {
      "anonymous": false,
      "inputs": [
        {
          "indexed": true,
          "internalType": "address",
          "name": "owner",
          "type": "address"
        },
        {
          "indexed": true,
          "internalType": "address",
          "name": "approved",
          "type": "address"
        },
        {
          "indexed": true,
          "internalType": "uint256",
          "name": "tokenId",
          "type": "uint256"
        }
      ],
      "name": "Approval",
      "type": "event"
    },
    {
      "anonymous": false,
      "inputs": [
        {
          "indexed": true,
          "internalType": "address",
          "name": "owner",
          "type": "address"
        },
        {
          "indexed": true,
          "internalType": "address",
          "name": "operator",
          "type": "address"
        },
        {
          "indexed": false,
          "internalType": "bool",
          "name": "approved",
          "type": "bool"
        }
      ],
      "name": "ApprovalForAll",
      "type": "event"
    },
    {
      "anonymous": false,
      "inputs": [
        {
          "indexed": true,
          "internalType": "address",
          "name": "user",
          "type": "address"
        },
        {
          "indexed": false,
          "internalType": "enum BadgeContract.BadgeTier",
          "name": "oldTier",
          "type": "uint8"
        },
        {
          "indexed": false,
          "internalType": "enum BadgeContract.BadgeTier",
          "name": "newTier",
          "type": "uint8"
        }
      ],
      "name": "BadgeUpgraded",
      "type": "event"
    },
    {
      "anonymous": false,
      "inputs": [
        {
          "indexed": true,
          "internalType": "address",
          "name": "previousOwner",
          "type": "address"
        },
        {
          "indexed": true,
          "internalType": "address",
          "name": "newOwner",
          "type": "address"
        }
      ],
      "name": "OwnershipTransferred",
      "type": "event"
    },
    {
      "anonymous": false,
      "inputs": [
        {
          "indexed": true,
          "internalType": "address",
          "name": "user",
          "type": "address"
        },
        {
          "indexed": false,
          "internalType": "uint256",
          "name": "amount",
          "type": "uint256"
        },
        {
          "indexed": false,
          "internalType": "uint256",
          "name": "totalSpending",
          "type": "uint256"
        }
      ],
      "name": "SpendingUpdated",
      "type": "event"
    },
    {
      "anonymous": false,
      "inputs": [
        {
          "indexed": true,
          "internalType": "address",
          "name": "from",
          "type": "address"
        },
        {
          "indexed": true,
          "internalType": "address",
          "name": "to",
          "type": "address"
        },
        {
          "indexed": true,
          "internalType": "uint256",
          "name": "tokenId",
          "type": "uint256"
        }
      ],
      "name": "Transfer",
      "type": "event"
    },
    {
      "inputs": [],
      "name": "GOLD_THRESHOLD",
      "outputs": [
        {
          "internalType": "uint256",
          "name": "",
          "type": "uint256"
        }
      ],
      "stateMutability": "view",
      "type": "function"
    },
    {
      "inputs": [],
      "name": "SILVER_THRESHOLD",
      "outputs": [
        {
          "internalType": "uint256",
          "name": "",
          "type": "uint256"
        }
      ],
      "stateMutability": "view",
      "type": "function"
    },
    {
      "inputs": [],
      "name": "VERIFIED_THRESHOLD",
      "outputs": [
        {
          "internalType": "uint256",
          "name": "",
          "type": "uint256"
        }
      ],
      "stateMutability": "view",
      "type": "function"
    },
    {
      "inputs": [
        {
          "internalType": "address",
          "name": "to",
          "type": "address"
        },
        {
          "internalType": "uint256",
          "name": "tokenId",
          "type": "uint256"
        }
      ],
      "name": "approve",
      "outputs": [],
      "stateMutability": "nonpayable",
      "type": "function"
    },
    {
      "inputs": [
        {
          "internalType": "enum BadgeContract.BadgeTier",
          "name": "",
          "type": "uint8"
        }
      ],
      "name": "badgeURIs",
      "outputs": [
        {
          "internalType": "string",
          "name": "",
          "type": "string"
        }
      ],
      "stateMutability": "view",
      "type": "function"
    },
    {
      "inputs": [
        {
          "internalType": "address",
          "name": "owner",
          "type": "address"
        }
      ],
      "name": "balanceOf",
      "outputs": [
        {
          "internalType": "uint256",
          "name": "",
          "type": "uint256"
        }
      ],
      "stateMutability": "view",
      "type": "function"
    },
    {
      "inputs": [
        {
          "internalType": "uint256",
          "name": "spending",
          "type": "uint256"
        }
      ],
      "name": "calculateBadgeTier",
      "outputs": [
        {
          "internalType": "enum BadgeContract.BadgeTier",
          "name": "",
          "type": "uint8"
        }
      ],
      "stateMutability": "pure",
      "type": "function"
    },
    {
      "inputs": [
        {
          "internalType": "uint256",
          "name": "tokenId",
          "type": "uint256"
        }
      ],
      "name": "getApproved",
      "outputs": [
        {
          "internalType": "address",
          "name": "",
          "type": "address"
        }
      ],
      "stateMutability": "view",
      "type": "function"
    },
    {
      "inputs": [
        {
          "internalType": "address",
          "name": "user",
          "type": "address"
        }
      ],
      "name": "getTotalSpending",
      "outputs": [
        {
          "internalType": "uint256",
          "name": "",
          "type": "uint256"
        }
      ],
      "stateMutability": "view",
      "type": "function"
    },
    {
      "inputs": [
        {
          "internalType": "address",
          "name": "user",
          "type": "address"
        }
      ],
      "name": "getUserBadge",
      "outputs": [
        {
          "internalType": "uint8",
          "name": "",
          "type": "uint8"
        }
      ],
      "stateMutability": "view",
      "type": "function"
    },
    {
      "inputs": [
        {
          "internalType": "address",
          "name": "owner",
          "type": "address"
        },
        {
          "internalType": "address",
          "name": "operator",
          "type": "address"
        }
      ],
      "name": "isApprovedForAll",
      "outputs": [
        {
          "internalType": "bool",
          "name": "",
          "type": "bool"
        }
      ],
      "stateMutability": "view",
      "type": "function"
    },
    {
      "inputs": [],
      "name": "name",
      "outputs": [
        {
          "internalType": "string",
          "name": "",
          "type": "string"
        }
      ],
      "stateMutability": "view",
      "type": "function"
    },
    {
      "inputs": [],
      "name": "owner",
      "outputs": [
        {
          "internalType": "address",
          "name": "",
          "type": "address"
        }
      ],
      "stateMutability": "view",
      "type": "function"
    },
    {
      "inputs": [
        {
          "internalType": "uint256",
          "name": "tokenId",
          "type": "uint256"
        }
      ],
      "name": "ownerOf",
      "outputs": [
        {
          "internalType": "address",
          "name": "",
          "type": "address"
        }
      ],
      "stateMutability": "view",
      "type": "function"
    },
    {
      "inputs": [],
      "name": "renounceOwnership",
      "outputs": [],
      "stateMutability": "nonpayable",
      "type": "function"
    },
    {
      "inputs": [
        {
          "internalType": "address",
          "name": "from",
          "type": "address"
        },
        {
          "internalType": "address",
          "name": "to",
          "type": "address"
        },
        {
          "internalType": "uint256",
          "name": "tokenId",
          "type": "uint256"
        }
      ],
      "name": "safeTransferFrom",
      "outputs": [],
      "stateMutability": "nonpayable",
      "type": "function"
    },
    {
      "inputs": [
        {
          "internalType": "address",
          "name": "from",
          "type": "address"
        },
        {
          "internalType": "address",
          "name": "to",
          "type": "address"
        },
        {
          "internalType": "uint256",
          "name": "tokenId",
          "type": "uint256"
        },
        {
          "internalType": "bytes",
          "name": "data",
          "type": "bytes"
        }
      ],
      "name": "safeTransferFrom",
      "outputs": [],
      "stateMutability": "nonpayable",
      "type": "function"
    },
    {
      "inputs": [
        {
          "internalType": "address",
          "name": "operator",
          "type": "address"
        },
        {
          "internalType": "bool",
          "name": "approved",
          "type": "bool"
        }
      ],
      "name": "setApprovalForAll",
      "outputs": [],
      "stateMutability": "nonpayable",
      "type": "function"
    },
    {
      "inputs": [
        {
          "internalType": "enum BadgeContract.BadgeTier",
          "name": "tier",
          "type": "uint8"
        },
        {
          "internalType": "string",
          "name": "uri",
          "type": "string"
        }
      ],
      "name": "setBadgeURI",
      "outputs": [],
      "stateMutability": "nonpayable",
      "type": "function"
    },
    {
      "inputs": [
        {
          "internalType": "bytes4",
          "name": "interfaceId",
          "type": "bytes4"
        }
      ],
      "name": "supportsInterface",
      "outputs": [
        {
          "internalType": "bool",
          "name": "",
          "type": "bool"
        }
      ],
      "stateMutability": "view",
      "type": "function"
    },
    {
      "inputs": [],
      "name": "symbol",
      "outputs": [
        {
          "internalType": "string",
          "name": "",
          "type": "string"
        }
      ],
      "stateMutability": "view",
      "type": "function"
    },
    {
      "inputs": [
        {
          "internalType": "uint256",
          "name": "tokenId",
          "type": "uint256"
        }
      ],
      "name": "tokenURI",
      "outputs": [
        {
          "internalType": "string",
          "name": "",
          "type": "string"
        }
      ],
      "stateMutability": "view",
      "type": "function"
    },
    {
      "inputs": [
        {
          "internalType": "address",
          "name": "",
          "type": "address"
        }
      ],
      "name": "totalSpending",
      "outputs": [
        {
          "internalType": "uint256",
          "name": "",
          "type": "uint256"
        }
      ],
      "stateMutability": "view",
      "type": "function"
    },
    {
      "inputs": [
        {
          "internalType": "address",
          "name": "from",
          "type": "address"
        },
        {
          "internalType": "address",
          "name": "to",
          "type": "address"
        },
        {
          "internalType": "uint256",
          "name": "tokenId",
          "type": "uint256"
        }
      ],
      "name": "transferFrom",
      "outputs": [],
      "stateMutability": "nonpayable",
      "type": "function"
    },
    {
      "inputs": [
        {
          "internalType": "address",
          "name": "newOwner",
          "type": "address"
        }
      ],
      "name": "transferOwnership",
      "outputs": [],
      "stateMutability": "nonpayable",
      "type": "function"
    },
    {
      "inputs": [
        {
          "internalType": "address",
          "name": "user",
          "type": "address"
        },
        {
          "internalType": "uint256",
          "name": "amount",
          "type": "uint256"
        }
      ],
      "name": "updateSpending",
      "outputs": [],
      "stateMutability": "nonpayable",
      "type": "function"
    },
    {
      "inputs": [
        {
          "internalType": "address",
          "name": "",
          "type": "address"
        }
      ],
      "name": "userBadges",
      "outputs": [
        {
          "internalType": "enum BadgeContract.BadgeTier",
          "name": "",
          "type": "uint8"
        }
      ],
      "stateMutability": "view",
      "type": "function"
    }
  ],
  "bytecode": "0x60806040523480156200001157600080fd5b506040518060400160405280601081526020016f5370656e64324561726e20426164676560801b8152506040518060400160405280600381526020016253324560e81b815250816000908162000068919062000354565b50600162000077828262000354565b505050620000946200008e6200025960201b60201c565b6200025d565b60408051808201909152601b81527f697066733a2f2f756e76657269666965642d62616467652d757269000000000060208083019190915260008052600990527fec8156718a8372b1db44bb411437d0870f3e3790d4a08526d024ce1b0b668f6b9062000102908262000354565b5060408051808201909152601981527f697066733a2f2f76657269666965642d62616467652d757269000000000000006020808301919091526001600052600990527f92e85d02570a8092d09a6e3a57665bc3815a2699a4074001bf1ccabf660f5a369062000172908262000354565b5060408051808201909152601781527f697066733a2f2f73696c7665722d62616467652d7572690000000000000000006020808301919091526002600052600990527f6cde3cea4b3a3fb2488b2808bae7556f4a405e50f65e1794383bc026131b13c390620001e2908262000354565b5060408051808201909152601581527f697066733a2f2f676f6c642d62616467652d75726900000000000000000000006020808301919091526003600052600990527fc575c31fea594a6eb97c8e9d3f9caee4c16218c6ef37e923234c0fe9014a61e79062000252908262000354565b5062000420565b3390565b600680546001600160a01b038381166001600160a01b0319831681179093556040519116919082907f8be0079c531659141344cd1fd0a4f28419497f9722a3daafe3b4186f6b6457e090600090a35050565b634e487b7160e01b600052604160045260246000fd5b600181811c90821680620002da57607f821691505b602082108103620002fb57634e487b7160e01b600052602260045260246000fd5b50919050565b601f8211156200034f57600081815260208120601f850160051c810160208610156200032a5750805b601f850160051c820191505b818110156200034b5782815560010162000336565b5050505b505050565b81516001600160401b03811115620003705762000370620002af565b6200038881620003818454620002c5565b8462000301565b602080601f831160018114620003c05760008415620003a75750858301515b600019600386901b1c1916600185901b1785556200034b565b600085815260208120601f198616915b82811015620003f157888601518255948401946001909101908401620003d0565b5085821015620004105787850151600019600388901b60f8161c191681555b5050505050600190811b01905550565b611b4c80620004306000396000f3fe608060405234801561001057600080fd5b50600436106101a95760003560e01c806370a08231116100f9578063a4936ad111610097578063c87b56dd11610071578063c87b56dd146103b4578063e985e9c5146103c7578063f2fde38b146103da578063f5474e12146103ed57600080fd5b8063a4936ad114610383578063b88d4fde14610396578063c1a0db30146103a957600080fd5b80638da5cb5b116100d35780638da5cb5b1461033257806395d89b41146103435780639e8891311461034b578063a22cb4651461037057600080fd5b806370a0823114610304578063715018a614610317578063831d147b1461031f57600080fd5b80631e8950fd1161016657806342842e0e1161014057806342842e0e146102b3578063501c3f55146102c657806356973974146102e65780636352211e146102f157600080fd5b80631e8950fd1461026d57806323b872dd1461028d5780633cedb982146102a057600080fd5b806301ffc9a7146101ae57806306fdde03146101d6578063081812fc146101eb578063095ea7b3146102165780630a3f9bca1461022b5780630fcd510a14610262575b600080fd5b6101c16101bc3660046114b7565b610410565b60405190151581526020015b60405180910390f35b6101de610462565b6040516101cd9190611521565b6101fe6101f9366004611534565b6104f4565b6040516001600160a01b0390911681526020016101cd565b610229610224366004611569565b61051b565b005b610254610239366004611593565b6001600160a01b031660009081526008602052604090205490565b6040519081526020016101cd565b6102546305f5e10081565b61028061027b366004611534565b610635565b6040516101cd91906115e6565b61022961029b3660046115f4565b610678565b6102296102ae366004611569565b6106a9565b6102296102c13660046115f4565b61083c565b6102546102d4366004611593565b60086020526000908152604090205481565b610254633b9aca0081565b6101fe6102ff366004611534565b610857565b610254610312366004611593565b6108b7565b61022961093d565b6101de61032d36600461163f565b610951565b6006546001600160a01b03166101fe565b6101de6109eb565b61035e610359366004611593565b6109fa565b60405160ff90911681526020016101cd565b61022961037e36600461165a565b610a27565b610229610391366004611722565b610a36565b6102296103a4366004611784565b610a80565b610254631dcd650081565b6101de6103c2366004611534565b610ab2565b6101c16103d5366004611800565b610c03565b6102296103e8366004611593565b610c31565b6102806103fb366004611593565b60076020526000908152604090205460ff1681565b60006001600160e01b031982166380ac58cd60e01b148061044157506001600160e01b03198216635b5e139f60e01b145b8061045c57506301ffc9a760e01b6001600160e01b03198316145b92915050565b60606000805461047190611833565b80601f016020809104026020016040519081016040528092919081815260200182805461049d90611833565b80156104ea5780601f106104bf576101008083540402835291602001916104ea565b820191906000526020600020905b8154815290600101906020018083116104cd57829003601f168201915b5050505050905090565b60006104ff82610caa565b506000908152600460205260409020546001600160a01b031690565b600061052682610857565b9050806001600160a01b0316836001600160a01b0316036105985760405162461bcd60e51b815260206004820152602160248201527f4552433732313a20617070726f76616c20746f2063757272656e74206f776e656044820152603960f91b60648201526084015b60405180910390fd5b336001600160a01b03821614806105b457506105b48133610c03565b6106265760405162461bcd60e51b815260206004820152603d60248201527f4552433732313a20617070726f76652063616c6c6572206973206e6f7420746f60448201527f6b656e206f776e6572206f7220617070726f76656420666f7220616c6c000000606482015260840161058f565b6106308383610d09565b505050565b6000633b9aca00821061064a57506003919050565b631dcd6500821061065d57506002919050565b6305f5e100821061067057506001919050565b506000919050565b6106823382610d77565b61069e5760405162461bcd60e51b815260040161058f9061186d565b610630838383610dd6565b6106b1610f47565b6001600160a01b0382166106fe5760405162461bcd60e51b8152602060048201526014602482015273496e76616c69642075736572206164647265737360601b604482015260640161058f565b6000811161074e5760405162461bcd60e51b815260206004820152601d60248201527f416d6f756e74206d7573742062652067726561746572207468616e2030000000604482015260640161058f565b6001600160a01b038216600090815260086020526040812080548392906107769084906118d0565b90915550506001600160a01b038216600081815260086020908152604091829020548251858152918201527f73381757452d93aaa1c796f07774d33185c5919755ca05e497cd7c74cbabcba8910160405180910390a26001600160a01b038216600090815260076020908152604080832054600890925282205460ff909116919061080090610635565b9050816003811115610814576108146115ae565b816003811115610826576108266115ae565b1115610836576108368482610fa1565b50505050565b61063083838360405180602001604052806000815250610a80565b6000818152600260205260408120546001600160a01b03168061045c5760405162461bcd60e51b8152602060048201526018602482015277115490cdcc8c4e881a5b9d985b1a59081d1bdad95b88125160421b604482015260640161058f565b60006001600160a01b0382166109215760405162461bcd60e51b815260206004820152602960248201527f4552433732313a2061646472657373207a65726f206973206e6f7420612076616044820152683634b21037bbb732b960b91b606482015260840161058f565b506001600160a01b031660009081526003602052604090205490565b610945610f47565b61094f6000611058565b565b6009602052600090815260409020805461096a90611833565b80601f016020809104026020016040519081016040528092919081815260200182805461099690611833565b80156109e35780601f106109b8576101008083540402835291602001916109e3565b820191906000526020600020905b8154815290600101906020018083116109c657829003601f168201915b505050505081565b60606001805461047190611833565b6001600160a01b03811660009081526007602052604081205460ff16600381111561045c5761045c6115ae565b610a323383836110aa565b5050565b610a3e610f47565b8060096000846003811115610a5557610a556115ae565b6003811115610a6657610a666115ae565b815260200190815260200160002090816106309190611931565b610a8a3383610d77565b610aa65760405162461bcd60e51b815260040161058f9061186d565b61083684848484611178565b6000818152600260205260409020546060906001600160a01b0316610b105760405162461bcd60e51b8152602060048201526014602482015273151bdad95b88191bd95cc81b9bdd08195e1a5cdd60621b604482015260640161058f565b6000610b1b83610857565b6001600160a01b03811660009081526007602052604081205491925060ff90911690600990826003811115610b5257610b526115ae565b6003811115610b6357610b636115ae565b81526020019081526020016000208054610b7c90611833565b80601f0160208091040260200160405190810160405280929190818152602001828054610ba890611833565b8015610bf55780601f10610bca57610100808354040283529160200191610bf5565b820191906000526020600020905b815481529060010190602001808311610bd857829003601f168201915b505050505092505050919050565b6001600160a01b03918216600090815260056020908152604080832093909416825291909152205460ff1690565b610c39610f47565b6001600160a01b038116610c9e5760405162461bcd60e51b815260206004820152602660248201527f4f776e61626c653a206e6577206f776e657220697320746865207a65726f206160448201526564647265737360d01b606482015260840161058f565b610ca781611058565b50565b6000818152600260205260409020546001600160a01b0316610ca75760405162461bcd60e51b8152602060048201526018602482015277115490cdcc8c4e881a5b9d985b1a59081d1bdad95b88125160421b604482015260640161058f565b600081815260046020526040902080546001600160a01b0319166001600160a01b0384169081179091558190610d3e82610857565b6001600160a01b03167f8c5be1e5ebec7d5bd14f71427d1e84f3dd0314c0f7b2291e5b200ac8c7c3b92560405160405180910390a45050565b600080610d8383610857565b9050806001600160a01b0316846001600160a01b03161480610daa5750610daa8185610c03565b80610dce5750836001600160a01b0316610dc3846104f4565b6001600160a01b0316145b949350505050565b826001600160a01b0316610de982610857565b6001600160a01b031614610e0f5760405162461bcd60e51b815260040161058f906119f1565b6001600160a01b038216610e715760405162461bcd60e51b8152602060048201526024808201527f4552433732313a207472616e7366657220746f20746865207a65726f206164646044820152637265737360e01b606482015260840161058f565b610e7e83838360016111ab565b826001600160a01b0316610e9182610857565b6001600160a01b031614610eb75760405162461bcd60e51b815260040161058f906119f1565b600081815260046020908152604080832080546001600160a01b03199081169091556001600160a01b0387811680865260038552838620805460001901905590871680865283862080546001019055868652600290945282852080549092168417909155905184937fddf252ad1be2c89b69c2b068fc378daa952ba7f163c4a11628f55a4df523b3ef91a4505050565b6006546001600160a01b0316331461094f5760405162461bcd60e51b815260206004820181905260248201527f4f776e61626c653a2063616c6c6572206973206e6f7420746865206f776e6572604482015260640161058f565b6001600160a01b0382166000908152600760205260409020805460ff811691839160ff19166001836003811115610fda57610fda6115ae565b0217905550610fe8836108b7565b60000361101057600a8054906000610fff83611a36565b919050555061101083600a54611207565b826001600160a01b03167f97948c061e0ecbd199c788b226cf08da8abe3bef932b71a871849372af6b2bbd828460405161104b929190611a4f565b60405180910390a2505050565b600680546001600160a01b038381166001600160a01b0319831681179093556040519116919082907f8be0079c531659141344cd1fd0a4f28419497f9722a3daafe3b4186f6b6457e090600090a35050565b816001600160a01b0316836001600160a01b03160361110b5760405162461bcd60e51b815260206004820152601960248201527f4552433732313a20617070726f766520746f2063616c6c657200000000000000604482015260640161058f565b6001600160a01b03838116600081815260056020908152604080832094871680845294825291829020805460ff191686151590811790915591519182527f17307eab39ab6107e8899845ad3d59bd9653f200f220920489ca2b5937696c31910160405180910390a3505050565b611183848484610dd6565b61118f848484846113a0565b6108365760405162461bcd60e51b815260040161058f90611a6a565b6001600160a01b038416156112025760405162461bcd60e51b815260206004820152601b60248201527f42616467657320617265206e6f6e2d7472616e7366657261626c650000000000604482015260640161058f565b610836565b6001600160a01b03821661125d5760405162461bcd60e51b815260206004820181905260248201527f4552433732313a206d696e7420746f20746865207a65726f2061646472657373604482015260640161058f565b6000818152600260205260409020546001600160a01b0316156112c25760405162461bcd60e51b815260206004820152601c60248201527f4552433732313a20746f6b656e20616c7265616479206d696e74656400000000604482015260640161058f565b6112d06000838360016111ab565b6000818152600260205260409020546001600160a01b0316156113355760405162461bcd60e51b815260206004820152601c60248201527f4552433732313a20746f6b656e20616c7265616479206d696e74656400000000604482015260640161058f565b6001600160a01b038216600081815260036020908152604080832080546001019055848352600290915280822080546001600160a01b0319168417905551839291907fddf252ad1be2c89b69c2b068fc378daa952ba7f163c4a11628f55a4df523b3ef908290a45050565b60006001600160a01b0384163b1561149657604051630a85bd0160e11b81526001600160a01b0385169063150b7a02906113e4903390899088908890600401611abc565b6020604051808303816000875af192505050801561141f575060408051601f3d908101601f1916820190925261141c91810190611af9565b60015b61147c573d80801561144d576040519150601f19603f3d011682016040523d82523d6000602084013e611452565b606091505b5080516000036114745760405162461bcd60e51b815260040161058f90611a6a565b805181602001fd5b6001600160e01b031916630a85bd0160e11b149050610dce565b506001949350505050565b6001600160e01b031981168114610ca757600080fd5b6000602082840312156114c957600080fd5b81356114d4816114a1565b9392505050565b6000815180845260005b81811015611501576020818501810151868301820152016114e5565b506000602082860101526020601f19601f83011685010191505092915050565b6020815260006114d460208301846114db565b60006020828403121561154657600080fd5b5035919050565b80356001600160a01b038116811461156457600080fd5b919050565b6000806040838503121561157c57600080fd5b6115858361154d565b946020939093013593505050565b6000602082840312156115a557600080fd5b6114d48261154d565b634e487b7160e01b600052602160045260246000fd5b600481106115e257634e487b7160e01b600052602160045260246000fd5b9052565b6020810161045c82846115c4565b60008060006060848603121561160957600080fd5b6116128461154d565b92506116206020850161154d565b9150604084013590509250925092565b80356004811061156457600080fd5b60006020828403121561165157600080fd5b6114d482611630565b6000806040838503121561166d57600080fd5b6116768361154d565b91506020830135801515811461168b57600080fd5b809150509250929050565b634e487b7160e01b600052604160045260246000fd5b600067ffffffffffffffff808411156116c7576116c7611696565b604051601f8501601f19908116603f011681019082821181831017156116ef576116ef611696565b8160405280935085815286868601111561170857600080fd5b858560208301376000602087830101525050509392505050565b6000806040838503121561173557600080fd5b61173e83611630565b9150602083013567ffffffffffffffff81111561175a57600080fd5b8301601f8101851361176b57600080fd5b61177a858235602084016116ac565b9150509250929050565b6000806000806080858703121561179a57600080fd5b6117a38561154d565b93506117b16020860161154d565b925060408501359150606085013567ffffffffffffffff8111156117d457600080fd5b8501601f810187136117e557600080fd5b6117f4878235602084016116ac565b91505092959194509250565b6000806040838503121561181357600080fd5b61181c8361154d565b915061182a6020840161154d565b90509250929050565b600181811c9082168061184757607f821691505b60208210810361186757634e487b7160e01b600052602260045260246000fd5b50919050565b6020808252602d908201527f4552433732313a2063616c6c6572206973206e6f7420746f6b656e206f776e6560408201526c1c881bdc88185c1c1c9bdd9959609a1b606082015260800190565b634e487b7160e01b600052601160045260246000fd5b8082018082111561045c5761045c6118ba565b601f82111561063057600081815260208120601f850160051c8101602086101561190a5750805b601f850160051c820191505b8181101561192957828155600101611916565b505050505050565b815167ffffffffffffffff81111561194b5761194b611696565b61195f816119598454611833565b846118e3565b602080601f831160018114611994576000841561197c5750858301515b600019600386901b1c1916600185901b178555611929565b600085815260208120601f198616915b828110156119c3578886015182559484019460019091019084016119a4565b50858210156119e15787850151600019600388901b60f8161c191681555b5050505050600190811b01905550565b60208082526025908201527f4552433732313a207472616e736665722066726f6d20696e636f72726563742060408201526437bbb732b960d91b606082015260800190565b600060018201611a4857611a486118ba565b5060010190565b60408101611a5d82856115c4565b6114d460208301846115c4565b60208082526032908201527f4552433732313a207472616e7366657220746f206e6f6e20455243373231526560408201527131b2b4bb32b91034b6b83632b6b2b73a32b960711b606082015260800190565b6001600160a01b0385811682528416602082015260408101839052608060608201819052600090611aef908301846114db565b9695505050505050565b600060208284031215611b0b57600080fd5b81516114d4816114a156fea2646970667358221220855d67a2fbcac6bed8468b6cf8c150a5d320dfb470618f630e4af66f63c9a13e64736f6c63430008130033",
  "linkReferences": {},
  "deployedLinkReferences": {}
}