{
  "_format": "hh-sol-artifact-1",
  "contractName": "SpendingContract",
  "sourceName": "contracts/SpendingContract.sol",
  "abi": [
    {
      "inputs": [
        {
          "internalType": "address",
          "name": "_usdc",
          "type": "address"
        }
      ],
      "stateMutability": "nonpayable",
      "type": "constructor"
    },
    {
      "anonymous": false,
      "inputs": [
        {
          "indexed": true,
          "internalType": "address",
          "name": "user",
          "type": "address"
        },
        {
          "indexed": false,
          "internalType": "uint256",
          "name": "amount",
          "type": "uint256"
        }
      ],
      "name": "AutoStakeTriggered",
      "type": "event"
    },
    {
      "anonymous": false,
      "inputs": [
        {
          "indexed": true,
          "internalType": "address",
          "name": "user",
          "type": "address"
        },
        {
          "indexed": false,
          "internalType": "uint256",
          "name": "amount",
          "type": "uint256"
        }
      ],
      "name": "CashbackClaimed",
      "type": "event"
    },
    {
      "anonymous": false,
      "inputs": [
        {
          "indexed": true,
          "internalType": "address",
          "name": "previousOwner",
          "type": "address"
        },
        {
          "indexed": true,
          "internalType": "address",
          "name": "newOwner",
          "type": "address"
        }
      ],
      "name": "OwnershipTransferred",
      "type": "event"
    },
    {
      "anonymous": false,
      "inputs": [
        {
          "indexed": true,
          "internalType": "address",
          "name": "user",
          "type": "address"
        },
        {
          "indexed": false,
          "internalType": "uint256",
          "name": "amount",
          "type": "uint256"
        },
        {
          "indexed": false,
          "internalType": "uint256",
          "name": "cashback",
          "type": "uint256"
        }
      ],
      "name": "SpendingRecorded",
      "type": "event"
    },
    {
      "inputs": [],
      "name": "USDC",
      "outputs": [
        {
          "internalType": "contract IERC20",
          "name": "",
          "type": "address"
        }
      ],
      "stateMutability": "view",
      "type": "function"
    },
    {
      "inputs": [
        {
          "internalType": "address",
          "name": "",
          "type": "address"
        }
      ],
      "name": "autoStakeEnabled",
      "outputs": [
        {
          "internalType": "bool",
          "name": "",
          "type": "bool"
        }
      ],
      "stateMutability": "view",
      "type": "function"
    },
    {
      "inputs": [],
      "name": "badgeContract",
      "outputs": [
        {
          "internalType": "contract IBadgeContract",
          "name": "",
          "type": "address"
        }
      ],
      "stateMutability": "view",
      "type": "function"
    },
    {
      "inputs": [
        {
          "internalType": "address",
          "name": "",
          "type": "address"
        }
      ],
      "name": "cashbackBalances",
      "outputs": [
        {
          "internalType": "uint256",
          "name": "",
          "type": "uint256"
        }
      ],
      "stateMutability": "view",
      "type": "function"
    },
    {
      "inputs": [],
      "name": "cashbackRate",
      "outputs": [
        {
          "internalType": "uint256",
          "name": "",
          "type": "uint256"
        }
      ],
      "stateMutability": "view",
      "type": "function"
    },
    {
      "inputs": [],
      "name": "claimCashback",
      "outputs": [],
      "stateMutability": "nonpayable",
      "type": "function"
    },
    {
      "inputs": [],
      "name": "disableAutoStake",
      "outputs": [],
      "stateMutability": "nonpayable",
      "type": "function"
    },
    {
      "inputs": [
        {
          "internalType": "uint256",
          "name": "threshold",
          "type": "uint256"
        }
      ],
      "name": "enableAutoStake",
      "outputs": [],
      "stateMutability": "nonpayable",
      "type": "function"
    },
    {
      "inputs": [
        {
          "internalType": "address",
          "name": "user",
          "type": "address"
        }
      ],
      "name": "getCashbackBalance",
      "outputs": [
        {
          "internalType": "uint256",
          "name": "",
          "type": "uint256"
        }
      ],
      "stateMutability": "view",
      "type": "function"
    },
    {
      "inputs": [],
      "name": "owner",
      "outputs": [
        {
          "internalType": "address",
          "name": "",
          "type": "address"
        }
      ],
      "stateMutability": "view",
      "type": "function"
    },
    {
      "inputs": [
        {
          "internalType": "uint256",
          "name": "amount",
          "type": "uint256"
        }
      ],
      "name": "recordSpending",
      "outputs": [],
      "stateMutability": "nonpayable",
      "type": "function"
    },
    {
      "inputs": [],
      "name": "renounceOwnership",
      "outputs": [],
      "stateMutability": "nonpayable",
      "type": "function"
    },
    {
      "inputs": [
        {
          "internalType": "address",
          "name": "_badgeContract",
          "type": "address"
        }
      ],
      "name": "setBadgeContract",
      "outputs": [],
      "stateMutability": "nonpayable",
      "type": "function"
    },
    {
      "inputs": [
        {
          "internalType": "address",
          "name": "_vaultContract",
          "type": "address"
        }
      ],
      "name": "setVaultContract",
      "outputs": [],
      "stateMutability": "nonpayable",
      "type": "function"
    },
    {
      "inputs": [
        {
          "internalType": "address",
          "name": "",
          "type": "address"
        }
      ],
      "name": "stakeThreshold",
      "outputs": [
        {
          "internalType": "uint256",
          "name": "",
          "type": "uint256"
        }
      ],
      "stateMutability": "view",
      "type": "function"
    },
    {
      "inputs": [
        {
          "internalType": "address",
          "name": "newOwner",
          "type": "address"
        }
      ],
      "name": "transferOwnership",
      "outputs": [],
      "stateMutability": "nonpayable",
      "type": "function"
    },
    {
      "inputs": [
        {
          "internalType": "uint256",
          "name": "newRate",
          "type": "uint256"
        }
      ],
      "name": "updateCashbackRate",
      "outputs": [],
      "stateMutability": "nonpayable",
      "type": "function"
    },
    {
      "inputs": [],
      "name": "vaultContract",
      "outputs": [
        {
          "internalType": "contract IVaultContract",
          "name": "",
          "type": "address"
        }
      ],
      "stateMutability": "view",
      "type": "function"
    }
  ],
  "bytecode": "0x60a060405260fa60045534801561001557600080fd5b50604051610c3a380380610c3a833981016040819052610034916100a5565b600160005561004233610053565b6001600160a01b03166080526100d5565b600180546001600160a01b038381166001600160a01b0319831681179093556040519116919082907f8be0079c531659141344cd1fd0a4f28419497f9722a3daafe3b4186f6b6457e090600090a35050565b6000602082840312156100b757600080fd5b81516001600160a01b03811681146100ce57600080fd5b9392505050565b608051610b3c6100fe60003960008181610250015281816103ce015261090b0152610b3c6000f3fe608060405234801561001057600080fd5b50600436106101165760003560e01c806389a30271116100a25780639c7bc08e116100715780639c7bc08e146102a9578063a5e73572146102b2578063a9bba443146102d2578063b9f71b89146102e5578063f2fde38b146102f857600080fd5b806389a302711461024b5780638d6d4925146102725780638da5cb5b1461028557806396f4ada61461029657600080fd5b806359a01689116100e957806359a01689146101cc5780636ee3a6ae146101e857806370faad321461021b578063715018a6146102235780637fcb67531461022b57600080fd5b80630eafacbe1461011b5780632274346b1461015757806347d212da1461018257806351bf8ae014610197575b600080fd5b610144610129366004610a20565b6001600160a01b031660009081526005602052604090205490565b6040519081526020015b60405180910390f35b60035461016a906001600160a01b031681565b6040516001600160a01b03909116815260200161014e565b610195610190366004610a20565b61030b565b005b6101956101a5366004610a50565b336000908152600660209081526040808320805460ff191660011790556007909152902055565b610195336000908152600660205260409020805460ff19169055565b61020b6101f6366004610a20565b60066020526000908152604090205460ff1681565b604051901515815260200161014e565b610195610335565b6101956104bb565b610144610239366004610a20565b60056020526000908152604090205481565b61016a7f000000000000000000000000000000000000000000000000000000000000000081565b60025461016a906001600160a01b031681565b6001546001600160a01b031661016a565b6101956102a4366004610a20565b6104cd565b61014460045481565b6101446102c0366004610a20565b60076020526000908152604090205481565b6101956102e0366004610a50565b6104f7565b6101956102f3366004610a50565b610691565b610195610306366004610a20565b6106e9565b61031361075f565b600280546001600160a01b0319166001600160a01b0392909216919091179055565b61033d6107b9565b33600090815260056020526040902054806103965760405162461bcd60e51b81526020600482015260146024820152734e6f20636173686261636b20746f20636c61696d60601b60448201526064015b60405180910390fd5b33600081815260056020526040808220919091555163a9059cbb60e01b81526004810191909152602481018290526001600160a01b037f0000000000000000000000000000000000000000000000000000000000000000169063a9059cbb906044016020604051808303816000875af1158015610417573d6000803e3d6000fd5b505050506040513d601f19601f8201168201806040525081019061043b9190610a69565b6104795760405162461bcd60e51b815260206004820152600f60248201526e151c985b9cd9995c8819985a5b1959608a1b604482015260640161038d565b60405181815233907fdfbec0477bd6ec4ed511951f322a036776fa0d097d957ee84e1d1ac2c00558b29060200160405180910390a2506104b96001600055565b565b6104c361075f565b6104b96000610812565b6104d561075f565b600380546001600160a01b0319166001600160a01b0392909216919091179055565b6104ff6107b9565b6000811161054f5760405162461bcd60e51b815260206004820152601d60248201527f416d6f756e74206d7573742062652067726561746572207468616e2030000000604482015260640161038d565b6000612710600454836105629190610aa1565b61056c9190610abe565b33600090815260056020526040812080549293508392909190610590908490610ae0565b90915550506002546001600160a01b03161561060b57600254604051631e76dcc160e11b8152336004820152602481018490526001600160a01b0390911690633cedb98290604401600060405180830381600087803b1580156105f257600080fd5b505af1158015610606573d6000803e3d6000fd5b505050505b604080518381526020810183905233917f366715e64ce9511fa3e454fd392268c0d7fbb6f3fb6bc354d71bd1e7403c16b2910160405180910390a23360009081526006602052604090205460ff1680156106745750336000908152600760205260409020548110155b15610683576106833382610864565b5061068e6001600055565b50565b61069961075f565b6103e88111156106e45760405162461bcd60e51b8152602060048201526016602482015275526174652063616e6e6f74206578636565642031302560501b604482015260640161038d565b600455565b6106f161075f565b6001600160a01b0381166107565760405162461bcd60e51b815260206004820152602660248201527f4f776e61626c653a206e6577206f776e657220697320746865207a65726f206160448201526564647265737360d01b606482015260840161038d565b61068e81610812565b6001546001600160a01b031633146104b95760405162461bcd60e51b815260206004820181905260248201527f4f776e61626c653a2063616c6c6572206973206e6f7420746865206f776e6572604482015260640161038d565b60026000540361080b5760405162461bcd60e51b815260206004820152601f60248201527f5265656e7472616e637947756172643a207265656e7472616e742063616c6c00604482015260640161038d565b6002600055565b600180546001600160a01b038381166001600160a01b0319831681179093556040519116919082907f8be0079c531659141344cd1fd0a4f28419497f9722a3daafe3b4186f6b6457e090600090a35050565b6003546001600160a01b03166108b55760405162461bcd60e51b815260206004820152601660248201527515985d5b1d0818dbdb9d1c9858dd081b9bdd081cd95d60521b604482015260640161038d565b6001600160a01b038216600090815260056020526040812080548392906108dd908490610af3565b909155505060035460405163095ea7b360e01b81526001600160a01b039182166004820152602481018390527f00000000000000000000000000000000000000000000000000000000000000009091169063095ea7b3906044016020604051808303816000875af1158015610956573d6000803e3d6000fd5b505050506040513d601f19601f8201168201806040525081019061097a9190610a69565b5060035460405163b6b55f2560e01b8152600481018390526001600160a01b039091169063b6b55f2590602401600060405180830381600087803b1580156109c157600080fd5b505af11580156109d5573d6000803e3d6000fd5b50505050816001600160a01b03167f219e85cdf6551b2feae4f6604526cb4880f1cb3f3327d626ae7b06839861d9f582604051610a1491815260200190565b60405180910390a25050565b600060208284031215610a3257600080fd5b81356001600160a01b0381168114610a4957600080fd5b9392505050565b600060208284031215610a6257600080fd5b5035919050565b600060208284031215610a7b57600080fd5b81518015158114610a4957600080fd5b634e487b7160e01b600052601160045260246000fd5b8082028115828204841417610ab857610ab8610a8b565b92915050565b600082610adb57634e487b7160e01b600052601260045260246000fd5b500490565b80820180821115610ab857610ab8610a8b565b81810381811115610ab857610ab8610a8b56fea26469706673582212201d833041ce5fc8bc9e47c70039c0cd04e1142c06a2ddb7a888c68295d2194d2b64736f6c63430008130033",
  "linkReferences": {},
  "deployedLinkReferences": {}
}