{
  "_format": "hh-sol-artifact-1",
  "contractName": "CreditContract",
  "sourceName": "contracts/CreditContract.sol",
  "abi": [
    {
      "inputs": [
        {
          "internalType": "address",
          "name": "_usdc",
          "type": "address"
        },
        {
          "internalType": "address",
          "name": "_vaultContract",
          "type": "address"
        }
      ],
      "stateMutability": "nonpayable",
      "type": "constructor"
    },
    {
      "anonymous": false,
      "inputs": [
        {
          "indexed": true,
          "internalType": "address",
          "name": "user",
          "type": "address"
        },
        {
          "indexed": false,
          "internalType": "uint256",
          "name": "amount",
          "type": "uint256"
        }
      ],
      "name": "Borrow",
      "type": "event"
    },
    {
      "anonymous": false,
      "inputs": [
        {
          "indexed": false,
          "internalType": "uint8",
          "name": "badgeTier",
          "type": "uint8"
        },
        {
          "indexed": false,
          "internalType": "uint256",
          "name": "multiplier",
          "type": "uint256"
        }
      ],
      "name": "CreditLimitUpdated",
      "type": "event"
    },
    {
      "anonymous": false,
      "inputs": [
        {
          "indexed": true,
          "internalType": "address",
          "name": "previousOwner",
          "type": "address"
        },
        {
          "indexed": true,
          "internalType": "address",
          "name": "newOwner",
          "type": "address"
        }
      ],
      "name": "OwnershipTransferred",
      "type": "event"
    },
    {
      "anonymous": false,
      "inputs": [
        {
          "indexed": true,
          "internalType": "address",
          "name": "user",
          "type": "address"
        },
        {
          "indexed": false,
          "internalType": "uint256",
          "name": "amount",
          "type": "uint256"
        }
      ],
      "name": "Repay",
      "type": "event"
    },
    {
      "inputs": [],
      "name": "USDC",
      "outputs": [
        {
          "internalType": "contract IERC20",
          "name": "",
          "type": "address"
        }
      ],
      "stateMutability": "view",
      "type": "function"
    },
    {
      "inputs": [],
      "name": "badgeContract",
      "outputs": [
        {
          "internalType": "contract IBadgeContract",
          "name": "",
          "type": "address"
        }
      ],
      "stateMutability": "view",
      "type": "function"
    },
    {
      "inputs": [
        {
          "internalType": "uint8",
          "name": "",
          "type": "uint8"
        }
      ],
      "name": "badgeCreditMultipliers",
      "outputs": [
        {
          "internalType": "uint256",
          "name": "",
          "type": "uint256"
        }
      ],
      "stateMutability": "view",
      "type": "function"
    },
    {
      "inputs": [
        {
          "internalType": "uint256",
          "name": "amount",
          "type": "uint256"
        }
      ],
      "name": "borrow",
      "outputs": [],
      "stateMutability": "nonpayable",
      "type": "function"
    },
    {
      "inputs": [
        {
          "internalType": "address",
          "name": "",
          "type": "address"
        }
      ],
      "name": "borrowedAmounts",
      "outputs": [
        {
          "internalType": "uint256",
          "name": "",
          "type": "uint256"
        }
      ],
      "stateMutability": "view",
      "type": "function"
    },
    {
      "inputs": [
        {
          "internalType": "address",
          "name": "user",
          "type": "address"
        }
      ],
      "name": "getBorrowedAmount",
      "outputs": [
        {
          "internalType": "uint256",
          "name": "",
          "type": "uint256"
        }
      ],
      "stateMutability": "view",
      "type": "function"
    },
    {
      "inputs": [
        {
          "internalType": "address",
          "name": "user",
          "type": "address"
        }
      ],
      "name": "getCreditLimit",
      "outputs": [
        {
          "internalType": "uint256",
          "name": "",
          "type": "uint256"
        }
      ],
      "stateMutability": "view",
      "type": "function"
    },
    {
      "inputs": [
        {
          "internalType": "address",
          "name": "user",
          "type": "address"
        }
      ],
      "name": "getInterestRate",
      "outputs": [
        {
          "internalType": "uint256",
          "name": "",
          "type": "uint256"
        }
      ],
      "stateMutability": "view",
      "type": "function"
    },
    {
      "inputs": [
        {
          "internalType": "uint8",
          "name": "",
          "type": "uint8"
        }
      ],
      "name": "interestRates",
      "outputs": [
        {
          "internalType": "uint256",
          "name": "",
          "type": "uint256"
        }
      ],
      "stateMutability": "view",
      "type": "function"
    },
    {
      "inputs": [],
      "name": "owner",
      "outputs": [
        {
          "internalType": "address",
          "name": "",
          "type": "address"
        }
      ],
      "stateMutability": "view",
      "type": "function"
    },
    {
      "inputs": [],
      "name": "renounceOwnership",
      "outputs": [],
      "stateMutability": "nonpayable",
      "type": "function"
    },
    {
      "inputs": [
        {
          "internalType": "uint256",
          "name": "amount",
          "type": "uint256"
        }
      ],
      "name": "repay",
      "outputs": [],
      "stateMutability": "payable",
      "type": "function"
    },
    {
      "inputs": [
        {
          "internalType": "address",
          "name": "_badgeContract",
          "type": "address"
        }
      ],
      "name": "setBadgeContract",
      "outputs": [],
      "stateMutability": "nonpayable",
      "type": "function"
    },
    {
      "inputs": [
        {
          "internalType": "address",
          "name": "newOwner",
          "type": "address"
        }
      ],
      "name": "transferOwnership",
      "outputs": [],
      "stateMutability": "nonpayable",
      "type": "function"
    },
    {
      "inputs": [
        {
          "internalType": "uint8",
          "name": "badgeTier",
          "type": "uint8"
        },
        {
          "internalType": "uint256",
          "name": "multiplier",
          "type": "uint256"
        }
      ],
      "name": "updateCreditMultiplier",
      "outputs": [],
      "stateMutability": "nonpayable",
      "type": "function"
    },
    {
      "inputs": [
        {
          "internalType": "uint8",
          "name": "badgeTier",
          "type": "uint8"
        },
        {
          "internalType": "uint256",
          "name": "rate",
          "type": "uint256"
        }
      ],
      "name": "updateInterestRate",
      "outputs": [],
      "stateMutability": "nonpayable",
      "type": "function"
    },
    {
      "inputs": [],
      "name": "vaultContract",
      "outputs": [
        {
          "internalType": "contract IVaultContract",
          "name": "",
          "type": "address"
        }
      ],
      "stateMutability": "view",
      "type": "function"
    }
  ],
  "bytecode": "0x60c060405234801561001057600080fd5b5060405161109a38038061109a83398101604081905261002f916101a9565b600160005561003d3361013b565b6001600160a01b039182166080521660a052610bb87fe90b7bceb6e7df5418fb78d8ee546e97c83a08bbccc01a0644d599ccd2a7c2e0556113887f679795a0195a1b76cdebb7c51d74e058aee92919b8c3389af86ef24535e8a28c55611b587f88601476d11616a71c5be67555bd1dff4b1cbf21533d2669b768b61518cfe1c35560046020526101407fabd6e7cb50984ff9c2f3e18a2660c3353dadf4e3291deeb275dae2cd1e44fe055561010e7f91da3fd0782e51c6b3986e9e672fd566868e71f3dbc2d6c2cd6fbb3e361af2a755600360005260fa7f2e174c10e159ea99b867ce3205125c24a42d128804e4070ed6fcc8cc98166aa0556101dc565b600180546001600160a01b038381166001600160a01b0319831681179093556040519116919082907f8be0079c531659141344cd1fd0a4f28419497f9722a3daafe3b4186f6b6457e090600090a35050565b80516001600160a01b03811681146101a457600080fd5b919050565b600080604083850312156101bc57600080fd5b6101c58361018d565b91506101d36020840161018d565b90509250929050565b60805160a051610e8461021660003960008181610155015261045d015260008181610285015281816106ab01526109c90152610e846000f3fe6080604052600436106100fe5760003560e01c8063715018a61161009557806395fdab0f1161006457806395fdab0f146102e5578063b9f2c7b514610305578063c5ebeaec1461033b578063d3ea0f891461035b578063f2fde38b1461037b57600080fd5b8063715018a61461025e57806389a30271146102735780638d6d4925146102a75780638da5cb5b146102c757600080fd5b80632e850136116100d15780632e850136146101d1578063371fd8e6146101fe578063478230f71461021157806347d212da1461023e57600080fd5b8063151e0136146101035780632274346b146101435780632c333e251461018f5780632d4ce8df146101af575b600080fd5b34801561010f57600080fd5b5061013061011e366004610ce9565b60046020526000908152604090205481565b6040519081526020015b60405180910390f35b34801561014f57600080fd5b506101777f000000000000000000000000000000000000000000000000000000000000000081565b6040516001600160a01b03909116815260200161013a565b34801561019b57600080fd5b506101306101aa366004610d0d565b61039b565b3480156101bb57600080fd5b506101cf6101ca366004610d36565b610515565b005b3480156101dd57600080fd5b506101306101ec366004610ce9565b60026020526000908152604090205481565b6101cf61020c366004610d62565b6105c6565b34801561021d57600080fd5b5061013061022c366004610d0d565b60036020526000908152604090205481565b34801561024a57600080fd5b506101cf610259366004610d0d565b6107c4565b34801561026a57600080fd5b506101cf6107ee565b34801561027f57600080fd5b506101777f000000000000000000000000000000000000000000000000000000000000000081565b3480156102b357600080fd5b50600554610177906001600160a01b031681565b3480156102d357600080fd5b506001546001600160a01b0316610177565b3480156102f157600080fd5b506101cf610300366004610d36565b610802565b34801561031157600080fd5b50610130610320366004610d0d565b6001600160a01b031660009081526003602052604090205490565b34801561034757600080fd5b506101cf610356366004610d62565b610872565b34801561036757600080fd5b50610130610376366004610d0d565b610abc565b34801561038757600080fd5b506101cf610396366004610d0d565b610b5f565b6005546000906001600160a01b03166103b657506000919050565b600554604051639e88913160e01b81526001600160a01b0384811660048301526000921690639e88913190602401602060405180830381865afa158015610401573d6000803e3d6000fd5b505050506040513d601f19601f820116820180604052508101906104259190610d7b565b90508060ff1660000361043b5750600092915050565b6040516323b9a44960e11b81526001600160a01b0384811660048301526000917f000000000000000000000000000000000000000000000000000000000000000090911690634773489290602401602060405180830381865afa1580156104a6573d6000803e3d6000fd5b505050506040513d601f19601f820116820180604052508101906104ca9190610d98565b90506305f5e1008110156104e2575060009392505050565b60ff82166000908152600260205260409020546127106105028284610dc7565b61050c9190610de4565b95945050505050565b61051d610bd5565b6127108111156105745760405162461bcd60e51b815260206004820152601d60248201527f4d756c7469706c6965722063616e6e6f7420657863656564203130302500000060448201526064015b60405180910390fd5b60ff8216600081815260026020908152604091829020849055815192835282018390527ff01677abd9b4ef45f8b22a2af5065eaf5d935f5b495a363bcf9b2ca6f8c7fae3910160405180910390a15050565b6105ce610c2f565b6000811161061e5760405162461bcd60e51b815260206004820152601d60248201527f416d6f756e74206d7573742062652067726561746572207468616e2030000000604482015260640161056b565b336000908152600360205260409020548111156106895760405162461bcd60e51b8152602060048201526024808201527f526570617920616d6f756e74206578636565647320626f72726f77656420616d6044820152631bdd5b9d60e21b606482015260840161056b565b6040516323b872dd60e01b8152336004820152306024820152604481018290527f00000000000000000000000000000000000000000000000000000000000000006001600160a01b0316906323b872dd906064016020604051808303816000875af11580156106fc573d6000803e3d6000fd5b505050506040513d601f19601f820116820180604052508101906107209190610e06565b61075e5760405162461bcd60e51b815260206004820152600f60248201526e151c985b9cd9995c8819985a5b1959608a1b604482015260640161056b565b336000908152600360205260408120805483929061077d908490610e28565b909155505060405181815233907f5c16de4f8b59bd9caf0f49a545f25819a895ed223294290b408242e72a5942319060200160405180910390a26107c16001600055565b50565b6107cc610bd5565b600580546001600160a01b0319166001600160a01b0392909216919091179055565b6107f6610bd5565b6108006000610c88565b565b61080a610bd5565b61271081111561085c5760405162461bcd60e51b815260206004820152601760248201527f526174652063616e6e6f74206578636565642031303025000000000000000000604482015260640161056b565b60ff909116600090815260046020526040902055565b61087a610c2f565b600081116108ca5760405162461bcd60e51b815260206004820152601d60248201527f416d6f756e74206d7573742062652067726561746572207468616e2030000000604482015260640161056b565b60006108d53361039b565b9050600081116109275760405162461bcd60e51b815260206004820152601960248201527f4e6f20637265646974206c696d697420617661696c61626c6500000000000000604482015260640161056b565b336000908152600360205260409020548190610944908490610e3b565b11156109895760405162461bcd60e51b8152602060048201526014602482015273115e18d959591cc818dc99591a5d081b1a5b5a5d60621b604482015260640161056b565b33600090815260036020526040812080548492906109a8908490610e3b565b909155505060405163a9059cbb60e01b8152336004820152602481018390527f00000000000000000000000000000000000000000000000000000000000000006001600160a01b03169063a9059cbb906044016020604051808303816000875af1158015610a1a573d6000803e3d6000fd5b505050506040513d601f19601f82011682018060405250810190610a3e9190610e06565b610a7c5760405162461bcd60e51b815260206004820152600f60248201526e151c985b9cd9995c8819985a5b1959608a1b604482015260640161056b565b60405182815233907fcbc04eca7e9da35cb1393a6135a199ca52e450d5e9251cbd99f7847d33a367509060200160405180910390a2506107c16001600055565b6005546000906001600160a01b0316610ad757506000919050565b600554604051639e88913160e01b81526001600160a01b0384811660048301526000921690639e88913190602401602060405180830381865afa158015610b22573d6000803e3d6000fd5b505050506040513d601f19601f82011682018060405250810190610b469190610d7b565b60ff166000908152600460205260409020549392505050565b610b67610bd5565b6001600160a01b038116610bcc5760405162461bcd60e51b815260206004820152602660248201527f4f776e61626c653a206e6577206f776e657220697320746865207a65726f206160448201526564647265737360d01b606482015260840161056b565b6107c181610c88565b6001546001600160a01b031633146108005760405162461bcd60e51b815260206004820181905260248201527f4f776e61626c653a2063616c6c6572206973206e6f7420746865206f776e6572604482015260640161056b565b600260005403610c815760405162461bcd60e51b815260206004820152601f60248201527f5265656e7472616e637947756172643a207265656e7472616e742063616c6c00604482015260640161056b565b6002600055565b600180546001600160a01b038381166001600160a01b0319831681179093556040519116919082907f8be0079c531659141344cd1fd0a4f28419497f9722a3daafe3b4186f6b6457e090600090a35050565b60ff811681146107c157600080fd5b600060208284031215610cfb57600080fd5b8135610d0681610cda565b9392505050565b600060208284031215610d1f57600080fd5b81356001600160a01b0381168114610d0657600080fd5b60008060408385031215610d4957600080fd5b8235610d5481610cda565b946020939093013593505050565b600060208284031215610d7457600080fd5b5035919050565b600060208284031215610d8d57600080fd5b8151610d0681610cda565b600060208284031215610daa57600080fd5b5051919050565b634e487b7160e01b600052601160045260246000fd5b8082028115828204841417610dde57610dde610db1565b92915050565b600082610e0157634e487b7160e01b600052601260045260246000fd5b500490565b600060208284031215610e1857600080fd5b81518015158114610d0657600080fd5b81810381811115610dde57610dde610db1565b80820180821115610dde57610dde610db156fea2646970667358221220c56c81a0ba9e17374b9bf9b273e906e9335b30795f50654600496ba8edc7ac8e64736f6c63430008130033",
  "linkReferences": {},
  "deployedLinkReferences": {}
}