{
  "_format": "hh-sol-artifact-1",
  "contractName": "VaultContract",
  "sourceName": "contracts/VaultContract.sol",
  "abi": [
    {
      "inputs": [
        {
          "internalType": "address",
          "name": "_usdc",
          "type": "address"
        }
      ],
      "stateMutability": "nonpayable",
      "type": "constructor"
    },
    {
      "anonymous": false,
      "inputs": [
        {
          "indexed": true,
          "internalType": "address",
          "name": "user",
          "type": "address"
        },
        {
          "indexed": false,
          "internalType": "uint256",
          "name": "amount",
          "type": "uint256"
        }
      ],
      "name": "Deposit",
      "type": "event"
    },
    {
      "anonymous": false,
      "inputs": [
        {
          "indexed": true,
          "internalType": "address",
          "name": "previousOwner",
          "type": "address"
        },
        {
          "indexed": true,
          "internalType": "address",
          "name": "newOwner",
          "type": "address"
        }
      ],
      "name": "OwnershipTransferred",
      "type": "event"
    },
    {
      "anonymous": false,
      "inputs": [
        {
          "indexed": true,
          "internalType": "address",
          "name": "user",
          "type": "address"
        },
        {
          "indexed": true,
          "internalType": "address",
          "name": "protocol",
          "type": "address"
        },
        {
          "indexed": false,
          "internalType": "uint256",
          "name": "percentage",
          "type": "uint256"
        }
      ],
      "name": "ProtocolAllocation",
      "type": "event"
    },
    {
      "anonymous": false,
      "inputs": [
        {
          "indexed": true,
          "internalType": "address",
          "name": "user",
          "type": "address"
        },
        {
          "indexed": false,
          "internalType": "uint256",
          "name": "amount",
          "type": "uint256"
        }
      ],
      "name": "Withdraw",
      "type": "event"
    },
    {
      "anonymous": false,
      "inputs": [
        {
          "indexed": true,
          "internalType": "address",
          "name": "user",
          "type": "address"
        },
        {
          "indexed": false,
          "internalType": "uint256",
          "name": "amount",
          "type": "uint256"
        }
      ],
      "name": "YieldGenerated",
      "type": "event"
    },
    {
      "inputs": [],
      "name": "USDC",
      "outputs": [
        {
          "internalType": "contract IERC20",
          "name": "",
          "type": "address"
        }
      ],
      "stateMutability": "view",
      "type": "function"
    },
    {
      "inputs": [
        {
          "internalType": "address",
          "name": "protocol",
          "type": "address"
        }
      ],
      "name": "addSupportedProtocol",
      "outputs": [],
      "stateMutability": "nonpayable",
      "type": "function"
    },
    {
      "inputs": [
        {
          "internalType": "address",
          "name": "protocol",
          "type": "address"
        },
        {
          "internalType": "uint256",
          "name": "percentage",
          "type": "uint256"
        }
      ],
      "name": "allocateToProtocol",
      "outputs": [],
      "stateMutability": "nonpayable",
      "type": "function"
    },
    {
      "inputs": [
        {
          "internalType": "uint256",
          "name": "amount",
          "type": "uint256"
        }
      ],
      "name": "deposit",
      "outputs": [],
      "stateMutability": "nonpayable",
      "type": "function"
    },
    {
      "inputs": [
        {
          "internalType": "address",
          "name": "user",
          "type": "address"
        },
        {
          "internalType": "uint256",
          "name": "amount",
          "type": "uint256"
        }
      ],
      "name": "generateYield",
      "outputs": [],
      "stateMutability": "nonpayable",
      "type": "function"
    },
    {
      "inputs": [
        {
          "internalType": "address",
          "name": "user",
          "type": "address"
        }
      ],
      "name": "getUserBalance",
      "outputs": [
        {
          "internalType": "uint256",
          "name": "",
          "type": "uint256"
        }
      ],
      "stateMutability": "view",
      "type": "function"
    },
    {
      "inputs": [
        {
          "internalType": "address",
          "name": "user",
          "type": "address"
        }
      ],
      "name": "getYield",
      "outputs": [
        {
          "internalType": "uint256",
          "name": "",
          "type": "uint256"
        }
      ],
      "stateMutability": "view",
      "type": "function"
    },
    {
      "inputs": [],
      "name": "owner",
      "outputs": [
        {
          "internalType": "address",
          "name": "",
          "type": "address"
        }
      ],
      "stateMutability": "view",
      "type": "function"
    },
    {
      "inputs": [
        {
          "internalType": "address",
          "name": "",
          "type": "address"
        },
        {
          "internalType": "address",
          "name": "",
          "type": "address"
        }
      ],
      "name": "protocolAllocations",
      "outputs": [
        {
          "internalType": "uint256",
          "name": "",
          "type": "uint256"
        }
      ],
      "stateMutability": "view",
      "type": "function"
    },
    {
      "inputs": [
        {
          "internalType": "address",
          "name": "protocol",
          "type": "address"
        }
      ],
      "name": "removeSupportedProtocol",
      "outputs": [],
      "stateMutability": "nonpayable",
      "type": "function"
    },
    {
      "inputs": [],
      "name": "renounceOwnership",
      "outputs": [],
      "stateMutability": "nonpayable",
      "type": "function"
    },
    {
      "inputs": [
        {
          "internalType": "address",
          "name": "",
          "type": "address"
        }
      ],
      "name": "supportedProtocols",
      "outputs": [
        {
          "internalType": "bool",
          "name": "",
          "type": "bool"
        }
      ],
      "stateMutability": "view",
      "type": "function"
    },
    {
      "inputs": [
        {
          "internalType": "address",
          "name": "newOwner",
          "type": "address"
        }
      ],
      "name": "transferOwnership",
      "outputs": [],
      "stateMutability": "nonpayable",
      "type": "function"
    },
    {
      "inputs": [
        {
          "internalType": "address",
          "name": "",
          "type": "address"
        }
      ],
      "name": "userBalances",
      "outputs": [
        {
          "internalType": "uint256",
          "name": "",
          "type": "uint256"
        }
      ],
      "stateMutability": "view",
      "type": "function"
    },
    {
      "inputs": [
        {
          "internalType": "address",
          "name": "",
          "type": "address"
        }
      ],
      "name": "userYield",
      "outputs": [
        {
          "internalType": "uint256",
          "name": "",
          "type": "uint256"
        }
      ],
      "stateMutability": "view",
      "type": "function"
    },
    {
      "inputs": [
        {
          "internalType": "uint256",
          "name": "amount",
          "type": "uint256"
        }
      ],
      "name": "withdraw",
      "outputs": [],
      "stateMutability": "nonpayable",
      "type": "function"
    }
  ],
  "bytecode": "0x60a060405234801561001057600080fd5b50604051610c33380380610c3383398101604081905261002f916100a0565b600160005561003d3361004e565b6001600160a01b03166080526100d0565b600180546001600160a01b038381166001600160a01b0319831681179093556040519116919082907f8be0079c531659141344cd1fd0a4f28419497f9722a3daafe3b4186f6b6457e090600090a35050565b6000602082840312156100b257600080fd5b81516001600160a01b03811681146100c957600080fd5b9392505050565b608051610b3a6100f960003960008181610230015281816103da01526106570152610b3a6000f3fe608060405234801561001057600080fd5b50600436106101005760003560e01c80638438cc2311610097578063b6b55f2511610066578063b6b55f251461027b578063e2cfa93d1461028e578063e7357f59146102a1578063f2fde38b146102d457600080fd5b80638438cc231461020557806386a794381461021857806389a302711461022b5780638da5cb5b1461026a57600080fd5b806361b3165d116100d357806361b3165d146101a157806364c33977146101b4578063715018a6146101dd5780637e562904146101e557600080fd5b806326224c64146101055780632e1a7d4d1461013857806346a4500f1461014d5780634773489214610178575b600080fd5b610125610113366004610a08565b60026020526000908152604090205481565b6040519081526020015b60405180910390f35b61014b610146366004610a2a565b6102e7565b005b61012561015b366004610a43565b600360209081526000928352604080842090915290825290205481565b610125610186366004610a08565b6001600160a01b031660009081526002602052604090205490565b61014b6101af366004610a08565b6104d0565b6101256101c2366004610a08565b6001600160a01b031660009081526005602052604090205490565b61014b6104fc565b6101256101f3366004610a08565b60056020526000908152604090205481565b61014b610213366004610a08565b610510565b61014b610226366004610a76565b610539565b6102527f000000000000000000000000000000000000000000000000000000000000000081565b6040516001600160a01b03909116815260200161012f565b6001546001600160a01b0316610252565b61014b610289366004610a2a565b6105dd565b61014b61029c366004610a76565b610760565b6102c46102af366004610a08565b60046020526000908152604090205460ff1681565b604051901515815260200161012f565b61014b6102e2366004610a08565b610871565b6102ef6108e7565b600081116103445760405162461bcd60e51b815260206004820152601d60248201527f416d6f756e74206d7573742062652067726561746572207468616e203000000060448201526064015b60405180910390fd5b3360009081526002602052604090205481111561039a5760405162461bcd60e51b8152602060048201526014602482015273496e73756666696369656e742062616c616e636560601b604482015260640161033b565b33600090815260026020526040812080548392906103b9908490610ab6565b909155505060405163a9059cbb60e01b8152336004820152602481018290527f00000000000000000000000000000000000000000000000000000000000000006001600160a01b03169063a9059cbb906044016020604051808303816000875af115801561042b573d6000803e3d6000fd5b505050506040513d601f19601f8201168201806040525081019061044f9190610acf565b61048d5760405162461bcd60e51b815260206004820152600f60248201526e151c985b9cd9995c8819985a5b1959608a1b604482015260640161033b565b60405181815233907f884edad9ce6fa2440d8a54cc123490eb96d2768479d49ff9c7366125a9424364906020015b60405180910390a26104cd6001600055565b50565b6104d8610940565b6001600160a01b03166000908152600460205260409020805460ff19166001179055565b610504610940565b61050e600061099a565b565b610518610940565b6001600160a01b03166000908152600460205260409020805460ff19169055565b610541610940565b6001600160a01b03821660009081526005602052604081208054839290610569908490610af1565b90915550506001600160a01b03821660009081526002602052604081208054839290610596908490610af1565b90915550506040518181526001600160a01b038316907f07616302615f148fb89acb6dadd27ccbeeaa18d4d6dbb193d2c046c94bb5a3039060200160405180910390a25050565b6105e56108e7565b600081116106355760405162461bcd60e51b815260206004820152601d60248201527f416d6f756e74206d7573742062652067726561746572207468616e2030000000604482015260640161033b565b6040516323b872dd60e01b8152336004820152306024820152604481018290527f00000000000000000000000000000000000000000000000000000000000000006001600160a01b0316906323b872dd906064016020604051808303816000875af11580156106a8573d6000803e3d6000fd5b505050506040513d601f19601f820116820180604052508101906106cc9190610acf565b61070a5760405162461bcd60e51b815260206004820152600f60248201526e151c985b9cd9995c8819985a5b1959608a1b604482015260640161033b565b3360009081526002602052604081208054839290610729908490610af1565b909155505060405181815233907fe1fffcc4923d04b559f4d29a8bfc6cda04eb5b0d3c460751c2402c5c5cc9109c906020016104bb565b6001600160a01b03821660009081526004602052604090205460ff166107c15760405162461bcd60e51b8152602060048201526016602482015275141c9bdd1bd8dbdb081b9bdd081cdd5c1c1bdc9d195960521b604482015260640161033b565b60648111156108125760405162461bcd60e51b815260206004820152601c60248201527f50657263656e746167652063616e6e6f74206578636565642031303000000000604482015260640161033b565b3360008181526003602090815260408083206001600160a01b03871680855290835292819020859055518481529192917fbd7cdd08fc3d9777df8da3f90dd79a3908d81ec54437fb75bfad9ead89966be9910160405180910390a35050565b610879610940565b6001600160a01b0381166108de5760405162461bcd60e51b815260206004820152602660248201527f4f776e61626c653a206e6577206f776e657220697320746865207a65726f206160448201526564647265737360d01b606482015260840161033b565b6104cd8161099a565b6002600054036109395760405162461bcd60e51b815260206004820152601f60248201527f5265656e7472616e637947756172643a207265656e7472616e742063616c6c00604482015260640161033b565b6002600055565b6001546001600160a01b0316331461050e5760405162461bcd60e51b815260206004820181905260248201527f4f776e61626c653a2063616c6c6572206973206e6f7420746865206f776e6572604482015260640161033b565b600180546001600160a01b038381166001600160a01b0319831681179093556040519116919082907f8be0079c531659141344cd1fd0a4f28419497f9722a3daafe3b4186f6b6457e090600090a35050565b80356001600160a01b0381168114610a0357600080fd5b919050565b600060208284031215610a1a57600080fd5b610a23826109ec565b9392505050565b600060208284031215610a3c57600080fd5b5035919050565b60008060408385031215610a5657600080fd5b610a5f836109ec565b9150610a6d602084016109ec565b90509250929050565b60008060408385031215610a8957600080fd5b610a92836109ec565b946020939093013593505050565b634e487b7160e01b600052601160045260246000fd5b81810381811115610ac957610ac9610aa0565b92915050565b600060208284031215610ae157600080fd5b81518015158114610a2357600080fd5b80820180821115610ac957610ac9610aa056fea2646970667358221220024c8cd754450591e662dd79389f05ef922e6f8c4a67badb9d0b47912f65015264736f6c63430008130033",
  "linkReferences": {},
  "deployedLinkReferences": {}
}